:020000040800F2
:100000000028002001160008C90E0008CF0E0008C5
:10001000D50E0008DB0E0008E10E0008000000000D
:10002000000000000000000000000000E70E0008D3
:10003000F30E000800000000FF0E00080B0F000880
:100040004916000849160008491600084916000814
:100050004916000849160008491600084916000804
:1000600049160008491600084916000849160008F4
:1000700049160008491600084916000849160008E4
:1000800049160008491600084916000849160008D4
:1000900049160008491600084916000849160008C4
:1000A00049160008491600084916000849160008B4
:1000B000190F000849160008000000004916000842
:1000C0004916000800000000000000004916000862
:1000D0000000000049160008491600080000000052
:1000E00049160008491600084916000800000000DB
:1000F0000000000000000000000000000000000000
:0C01000000000000000000005FF808F1A3
:10010C0010B5054C237833B9044B13B10448AFF345
:10011C0000800123237010BDB800002000000000F7
:10012C00782C000808B5034B1BB103490348AFF307
:10013C00008008BD00000000BC000020782C0008E6
:10014C0080B483B000AF01237B601BE0124A7B6854
:10015C00012142F82310114A7B68012142F8231037
:10016C000F4A7B68012142F823100E4A7B6801215B
:10017C0042F823100C4A7B68002142F823107B685C
:10018C0001337B607B68032BE0DD00BF00BF0C37C5
:10019C00BD4680BC704700BF48010020080100200C
:1001AC0058010020380100202801002080B584B0BF
:1001BC0000AFF860B9601346FB80344AFB6852F814
:1001CC0023203349FB6841F82320324AFB6852F85C
:1001DC0023202E49FB6841F82320FB881946B86878
:1001EC0001F018FD034619462A4AFB6842F8231011
:1001FC00274AFB6852F823202449FB6851F8233026
:10020C009A423ED1214AFB6852F823202149FB68CF
:10021C0051F823309A4234D11F4AFB6852F82320FC
:10022C001C49FB6851F823309A4216D0194AFB68D6
:10023C0052F823201849FB6841F82320154AFB6823
:10024C0052F82330002B1CD1F86800F05FF8134AE9
:10025C00FB68C82142F8231013E0104AFB6852F8DF
:10026C0023305A1E0D49FB6841F823200B4AFB68CA
:10027C0052F82330002B04D1074AFB68012142F8C5
:10028C00231000BF1037BD4680BD00BF0801002001
:10029C0048010020580100203801002018010020DE
:1002AC0080B500AF4FF4005208490120FFF77EFFE4
:1002BC004FF4804205490220FFF778FF4FF40042CB
:1002CC0002490320FFF772FF00BF80BD0010014000
:1002DC0080B483B000AF78607B68032B01DD002312
:1002EC000DE0094A7B6852F82330012B06D1064AEF
:1002FC007B68002142F82310012300E000231846FC
:10030C000C37BD4680BC70472801002080B483B0F8
:10031C0000AF7860044A7B68012142F8231000BFCB
:10032C000C37BD4680BC70472801002080B584B0D6
:10033C0000AF78600023FB6011E00D4AFB6852F8B7
:10034C0023000C4AFB6832F81310FB687A681344DC
:10035C001B781A4601F075FCFB680133FB60FB68E7
:10036C00062BEADD00BF00BF1037BD4680BD00BFC5
:10037C00000000203800002080B582B000AF78600B
:10038C007B68092B3ED801A252F823F0C103000868
:10039C00C9030008D1030008D9030008E1030008D1
:1003AC00E9030008F1030008F90300080104000840
:1003BC00090400081648FFF7B9FF24E01548FFF7B9
:1003CC00B5FF20E01448FFF7B1FF1CE01348FFF71E
:1003DC00ADFF18E01248FFF7A9FF14E01148FFF732
:1003EC00A5FF10E01048FFF7A1FF0CE00F48FFF746
:1003FC009DFF08E00E48FFF799FF04E00D48FFF75A
:10040C0095FF00E000BF00BF0837BD4680BD00BFB0
:10041C00540000205B0000206200002069000020D6
:10042C0070000020770000207E0000208500002056
:10043C008C0000209300002080B584B000AF786061
:10044C000723FB6012E00D4AFB6852F823000C4AAC
:10045C00FB6832F81310FB68073B7A6813441B786F
:10046C001A4601F0EEFBFB680133FB60FB680D2BB9
:10047C00E9DD00BF00BF1037BD4680BD0000002085
:10048C003800002080B582B000AF78607B68092B03
:10049C003ED801A252F823F0CD040008D504000880
:1004AC00DD040008E5040008ED040008F50400086C
:1004BC00FD040008050500080D05000815050008D9
:1004CC001648FFF7B9FF24E01548FFF7B5FF20E009
:1004DC001448FFF7B1FF1CE01348FFF7ADFF18E01D
:1004EC001248FFF7A9FF14E01148FFF7A5FF10E031
:1004FC001048FFF7A1FF0CE00F48FFF79DFF08E045
:10050C000E48FFF799FF04E00D48FFF795FF00E058
:10051C0000BF00BF0837BD4680BD00BF540000209F
:10052C005B000020620000206900002070000020A9
:10053C00770000207E000020850000208C00002029
:10054C009300002080B500AF674B5B68052B00F271
:10055C00C28001A252F823F07D050008E3060008D2
:10056C00E3060008B1060008B90500086B06000890
:10057C005D4B04225A605D4B1B685D4A82FB031283
:10058C005211DB17D31A5B4A13605B4B00221A60C3
:10059C005A4B00221A605A4B1B681946012000F076
:1005AC00E3FB6421032000F0DFFB9BE0554BDB6891
:1005BC00012B15D14F4B1B68002B04DD4D4B1B68D9
:1005CC00013B4C4A13604D4B1B68002B04DD4B4B1D
:1005DC001B68013B494A13606421032000F0C4FBF3
:1005EC00444B1B68002B0DD1444B1B68002B09D1CD
:1005FC00454B1B683E4A82FB03125211DB17D31A80
:10060C003E4A136000F00AFA3A4B1B68002B02DDDD
:10061C0000F046FA01E000F06FFA3A4B5B68012BF0
:10062C005BD1314B05225A60304B1B6819460120B7
:10063C0000F09AFB324B1B682D4A82FB03125211BD
:10064C00DB17D31A2C4A13602A4B00221A602B4B4F
:10065C0000221A606421032000F086FB3DE0294B48
:10066C00DB68012B08D1244B1B68013B224A136029
:10067C006421032000F078FB00F0FCF900F0E4F9B1
:10068C00204B5B68012B2AD1174B03225A601E4B5F
:10069C001B681946012000F067FB6421032000F061
:1006AC0063FB1CE0174BDB68012B08D1124B1B685A
:1006BC00013B114A13606421032000F055FB00F04C
:1006CC0005FA00F0C1F90F4B5B68012B09D1064B01
:1006DC0000225A6005E000BF04E000BF02E000BF4A
:1006EC0000E000BF00BF80BDD4000020A4000020AB
:1006FC001F85EB51F0000020EC000020F4000020DE
:10070C00A0000020C4010020A800002080B500AF8C
:10071C005E4B9B68052B00F2AF8001A252F823F0D0
:10072C004507000885080008850800082B08000804
:10073C0081070008D1070008544B05229A60544BDE
:10074C001B681946022000F00FFB514B1B68514AE5
:10075C0082FB03125211DB17D31A4F4A13604F4B13
:10076C0000221A604E4B00221A606421032000F014
:10077C00FBFA88E000F068F94A4BDB68012B08D1E2
:10078C00464B1B68013B454A13606421032000F073
:10079C00EBFA454B1B683F4A82FB03125211DB17E5
:1007AC00D21A3E4B1B689A4202DA00F063F901E060
:1007BC0000F08CF93B4B9B68012B5FD1334B002233
:1007CC009A605BE000F06CF900F028F9354BDB68BF
:1007DC00012B08D1304B1B68013B2F4A136064215D
:1007EC00032000F0C1FA2F4B9B68012B48D1274BFB
:1007FC0003229A602C4B1B681946022000F0B4FAB5
:10080C006421032000F0B0FA274B1B68214A82FBBD
:10081C0003125211DB17D31A214A136030E000F097
:10082C006BF900F0FBF81F4BDB68012B08D11C4B5C
:10083C001B68013B1A4A13606421032000F094FAF0
:10084C00184B9B68012B1DD1104B04229A60174B3F
:10085C001B681946022000F087FA144B1B680D4ADE
:10086C0082FB03125211DB17D31A0C4A136064215A
:10087C00032000F079FA05E000BF04E000BF02E0BD
:10088C0000BF00E000BF00BF80BD00BFD40000204F
:10089C00A40000201F85EB51FC000020F800002074
:1008AC0000010020C4010020A8000020A0000020AE
:1008BC0080B400AF0F4B1B680F4A82FB031252111E
:1008CC00DB17D21A0D4B1B680B4981FB0301491135
:1008DC00DB17CB1A1A440A4B1B68074981FB03012F
:1008EC004911DB17CB1A1344064A136000BFBD46EF
:1008FC0080BC7047A00000201F85EB51A400002095
:10090C00A80000200401002080B500AF02210E4891
:10091C0001F0AFF910210C4801F0ABF900220421D1
:10092C00094801F08EF900222021074801F089F9CD
:10093C0000220821044801F084F9002240210248D9
:10094C0001F07FF900BF80BD0008014080B500AF09
:10095C0004210E4801F08DF920210C4801F089F991
:10096C0000220221094801F06CF9002210210748ED
:10097C0001F067F900220821044801F062F9002215
:10098C004021024801F05DF900BF80BD0008014024
:10099C0080B500AF08210E4801F06BF940210C48DE
:1009AC0001F067F900220221094801F04AF90022FE
:1009BC001021074801F045F900220421044801F0F8
:1009CC0040F900222021024801F03BF900BF80BD14
:1009DC000008014080B500AF002202210E4801F052
:1009EC0030F9002210210C4801F02BF900220421CF
:1009FC00094801F026F900222021074801F021F9CD
:100A0C0000220821044801F01CF900224021024870
:100A1C0001F017F900BF80BD0008014080B500AFA0
:100A2C0001220221074801F00CF90022042105489B
:100A3C0001F007F900220821024801F002F900BF79
:100A4C0080BD00BF0008014080B500AF012210211D
:100A5C00074801F0F6F800222021054801F0F1F8D2
:100A6C0000224021024801F0ECF800BF80BD00BF1D
:100A7C000008014080B500AF00220221074801F0B8
:100A8C00E0F801220421054801F0DBF800220821DE
:100A9C00024801F0D6F800BF80BD00BF000801403D
:100AAC0080B500AF00221021074801F0CAF80122DE
:100ABC002021054801F0C5F800224021024801F030
:100ACC00C0F800BF80BD00BF0008014080B500AF7A
:100ADC0000220221074801F0B4F800220421054845
:100AEC0001F0AFF801220821024801F0AAF800BF7A
:100AFC0080BD00BF0008014080B500AF002210216E
:100B0C00074801F09EF800222021054801F099F8D1
:100B1C0001224021024801F094F800BF80BD00BFC3
:100B2C000008014080B500AF00F08AFD00F010F81D
:100B3C0000F04AF800F094F8044801F0DFFCFFF7ED
:100B4C00FFFA00F033FA00F07FFBFAE768010020AF
:100B5C0080B590B000AF07F1180328220021184689
:100B6C0002F07CF83B1D00221A605A609A60DA6031
:100B7C001A610223BB610123BB621023FB620023B9
:100B8C007B6307F11803184601F08CF80346002B21
:100B9C0001D000F0E3F80F237B600023BB6000233F
:100BAC00FB6000233B6100237B613B1D0021184649
:100BBC0001F0F8FA0346002B01D000F0CFF800BF8B
:100BCC004037BD4680BD000080B586B000AF07F150
:100BDC00080300221A605A609A60DA603B460022D1
:100BEC001A605A601D4B4FF080421A601B4B41F645
:100BFC003F725A60194B00229A60184B0922DA6036
:100C0C00164B00221A61154B00229A61134801F011
:100C1C0025FC0346002B01D000F0A0F84FF48053C4
:100C2C00BB6007F1080319460C4801F0A3FD03460D
:100C3C00002B01D000F092F800233B6000237B6076
:100C4C003B461946054801F07BFF0346002B01D0BB
:100C5C0000F084F800BF1837BD4680BD6801002045
:100C6C0080B588B000AF07F1100300221A605A60FB
:100C7C009A60DA602F4B9B692E4A43F01003936104
:100C8C002C4B9B6903F01003FB60FB68294B9B69A1
:100C9C00284A43F004039361264B9B6903F0040339
:100CAC00BB60BB68234B9B69224A43F008039361EA
:100CBC00204B9B6903F008037B607B68002247F69E
:100CCC007E711D4800F0BDFF00224FF27F011B48D2
:100CDC0000F0B7FF4FF460433B6100237B610123BD
:100CEC00BB6107F110031946154800F019FE47F6D1
:100CFC007E733B6101237B610023BB610223FB619B
:100D0C0007F1100319460C4800F00AFE4FF27F035E
:100D1C003B6101237B610023BB610223FB6107F173
:100D2C0010031946054800F0FBFD00BF2037BD46F7
:100D3C0080BD00BF0010024000080140000C0140C3
:100D4C000010014080B582B000AF786000F04CF824
:100D5C00FFF7A6FA00BF0837BD4680BD80B400AFD0
:100D6C0072B600BFFEE7000080B483B000AF7860BD
:100D7C00396007497B683A6841F82320054A7B684B
:100D8C00002142F8231000BF0C37BD4680BC7047D1
:100D9C00B0010020C401002080B483B000AF7860A3
:100DAC000F4A7B6852F82330002B13DD0C4A7B680A
:100DBC0052F823305A1E0A497B6841F82320084A0E
:100DCC007B6852F82330002B04DC064A7B68012137
:100DDC0042F8231000BF0C37BD4680BC704700BFE3
:100DEC00B0010020C401002080B500AF0020FFF747
:100DFC00D3FF0120FFF7D0FF0220FFF7CDFF032028
:100E0C00FFF7CAFF0420FFF7C7FF00BF80BD00003B
:100E1C0080B485B000AF154B9B69144A43F00103B5
:100E2C009361124B9B6903F00103BB60BB680F4BD2
:100E3C00DB690E4A43F08053D3610C4BDB6903F042
:100E4C0080537B607B680A4B5B68FB60FB6823F01C
:100E5C00E063FB60FB6843F08063FB60044AFB6863
:100E6C00536000BF1437BD4680BC70470010024071
:100E7C000000014080B584B000AF78607B681B68CF
:100E8C00B3F1804F13D10C4BDB690B4A43F00103D8
:100E9C00D361094BDB6903F00103FB60FB680022A3
:100EAC0000211C2000F005FD1C2000F01EFD00BFE1
:100EBC001037BD4680BD00BF0010024080B400AFAB
:100ECC00FEE780B400AFFEE780B400AFFEE780B46D
:100EDC0000AFFEE780B400AFFEE780B400AF00BF08
:100EEC00BD4680BC704780B400AF00BFBD4680BC1F
:100EFC00704780B400AF00BFBD4680BC704780B562
:100F0C0000AF00F0E3FB00BF80BD000080B500AF78
:100F1C00024801F03FFB00BF80BD00BF680100200C
:100F2C0080B400AF00BFBD4680BC704780B582B0B6
:100F3C0000AF786000224FF480510B4800F081FE26
:100F4C0001224FF48041084800F07BFE01224FF44F
:100F5C000041054800F075FE7868FFF70DFA00BFF8
:100F6C000837BD4680BD00BF000C014080B582B083
:100F7C0000AF786000224FF400510B4800F061FE86
:100F8C0001224FF48041084800F05BFE01224FF42F
:100F9C000041054800F055FE7868FFF773FA00BF72
:100FAC000837BD4680BD00BF000C014080B500AFC6
:100FBC00984B1B68642B08D0642B00F32381012B06
:100FCC0013D0022B00F09B801CE1924B01221A6083
:100FDC00FFF76EFC64210020FFF7C6FE8E4B00224B
:100FEC005A608D4B00229A6011E18C4B1B688C4A25
:100FFC0082FB03125211DB17D21A8A4B1B688849E9
:10100C0081FB03014911DB17CB1A1A44864B1B6871
:10101C009A4217DA814B1B68814A82FB03125211E8
:10102C00DB179A1A804B1B681A447E4B1B687C4951
:10103C0081FB03014911DB175B1A13441846FFF7B8
:10104C0075FF23E0774B1B68754A82FB0312521124
:10105C00DB17D21A744B1B689A420EDA714B1B6861
:10106C006F4A82FB03125211DB179A1A6E4B1B68E4
:10107C0013441846FFF75AFF08E06B4B1B68002B14
:10108C0004DD694B1B681846FFF750FF674B1B6864
:10109C00002B04DD654B1B681846FFF767FF644B9C
:1010AC001B68002B04DD624B1B681846FFF75EFFC4
:1010BC00604B1B68002B04DD5E4B1B681846FFF76A
:1010CC0055FFFFF73FFA5C4B1B68012B08D1564BC1
:1010DC001B68013B544A136064210020FFF744FE57
:1010EC00514B1B68002B40F08F804A4B02221A6038
:1010FC0064210020FFF738FEFFF7DAFB84E0474B52
:10110C001B68474A82FB03125211DB17D21A454B5C
:10111C001B68434981FB03014911DB17CB1A1A44A5
:10112C00414B1B689A4217DA3C4B1B683C4A82FBCA
:10113C0003125211DB179A1A3B4B1B681A44394B9A
:10114C001B68374981FB03014911DB175B1A1344F8
:10115C001846FFF7EBFE23E0324B1B68304A82FB4C
:10116C0003125211DB17D21A2F4B1B689A420EDA5C
:10117C002C4B1B682A4A82FB03125211DB179A1A5A
:10118C00294B1B6813441846FFF7D0FE08E0264B8A
:10119C001B68002B04DD244B1B681846FFF7C6FEAA
:1011AC00264B1B68002B04DD244B1B681846FFF7ED
:1011BC00DDFE234B1B68002B04DD214B1B681846FE
:1011CC00FFF7D4FE1F4B1B68002B04DD1D4B1B6867
:1011DC001846FFF7CBFEFFF799FA174B1B68012B4C
:1011EC0008D1114B1B68013B0F4A1360642100208E
:1011FC00FFF7BAFD0C4B1B68002B07D1054B642283
:10120C001A6003E000BF02E000BF00E000BF00BFB7
:10121C0080BD00BF9C000020D4000020A400002052
:10122C001F85EB51A800002004010020F0000020D5
:10123C00EC000020F4000020C4010020FC00002081
:10124C00F80000200001002080B500AF8C4B1B681B
:10125C000E2B00F025810E2B00F3A2810C2B03D05A
:10126C000D2B00F087809BE1864B1B68002B03D174
:10127C00854B1B68834A1360824B1B6842F2AC623D
:10128C00934203D17F4B4FF4FA721A6001224FF450
:10129C0080517E4800F0D5FC01224FF400517B4870
:1012AC0000F0CFFC00224FF48041784800F0C9FCDC
:1012BC0000224FF40041754800F0C3FC714B1B68D1
:1012CC00734A82FB03129211DB17D31A1846FFF7ED
:1012DC0053F86C4B1A686E4B83FB02139911D3179E
:1012EC00CB1A4FF47A7101FB03F3D31A694A82FBD0
:1012FC0003125211DB17D31A1846FFF7C3F8664BCB
:10130C001B69012B05D1FFF7FFFA32210420FFF7EF
:10131C002BFD0120FEF7DCFF0346012B0BD1584BB4
:10132C000D221A60574B00221A60FFF753FB322133
:10133C000420FFF719FD0220FEF7CAFF0346012B1C
:10134C0004D1504B1B6864334E4A13600320FEF7E4
:10135C00BFFF0346012B40F03681FFF73BFB494BA7
:10136C001B68494A1360474B00221A60444B6422A5
:10137C001A6028E1434B1B68002B03D1474B1B68B9
:10138C00404A13603F4B1B6842F2AC62934203D15C
:10139C003C4B4FF496721A6001224FF480513B483B
:1013AC0000F04FFC01224FF40051384800F049FC8A
:1013BC0000224FF48041354800F043FC00224FF4EA
:1013CC000041324800F03DFC2E4B1B68304A82FB3A
:1013DC0003129211DB17D31A1846FEF7CDFF294BD7
:1013EC001A682B4B83FB02139911D317CB1A4FF4AA
:1013FC007A7101FB03F3D31A264A82FB03125211B2
:10140C00DB17D31A1846FFF73DF8234B1B69012B4A
:10141C0005D1FFF79BFA32210420FFF7A5FC012030
:10142C00FEF756FF0346012B0BD1FFF7D3FA154BF2
:10143C0000221A60124B0E221A6032210420FFF790
:10144C0093FC0220FEF744FF0346012B04D10D4B05
:10145C001B6864330B4A13600320FEF739FF034605
:10146C00012B40F0B280FFF7B5FA064B1B680B4A14
:10147C001360044B00221A60014B64221A60A4E032
:10148C009C000020E8000020A0000020000C01407F
:10149C00D34D62101F85EB51C4010020A400002025
:1014AC004D4B1B68002B03D14C4B1B684A4A1360F5
:1014BC00494B1B6842F2AC62934202D1464BC822A4
:1014CC001A6001224FF48051454800F0BAFB01220A
:1014DC004FF40051424800F0B4FB00224FF480411D
:1014EC003F4800F0AEFB00224FF400413C4800F0B6
:1014FC00A8FB394B1B683B4A82FB03129211DB178A
:10150C00D31A1846FEF738FF334B1A68354B83FB5A
:10151C0002139911D317CB1A4FF47A7101FB03F311
:10152C00D31A314A82FB03125211DB17D31A184615
:10153C00FEF7A8FF2D4B1B69012B05D1FFF728FAED
:10154C0032210420FFF710FC0120FEF7C1FE0346F8
:10155C00012B07D1264B64221A601F4B00221A6004
:10156C00FFF738FA0220FEF7B3FE0346012B04D135
:10157C00194B1B686433184A13600320FEF7A8FE4E
:10158C000346012B23D1FFF725FA134B1B68134A93
:10159C001360114B00221A60154B64221A6016E07E
:1015AC000120FEF795FE0346012B12D1104B0C22A5
:1015BC001A60094B00221A60FFF70CFA3221042042
:1015CC00FFF7D2FB05E000BF04E000BF02E000BF64
:1015DC0000E000BF00BF80BDE8000020A800002094
:1015EC00000C0140D34D62101F85EB51C40100204B
:1015FC009C000020FFF794FC0B480C490C4A00237C
:10160C0002E0D458C4500433C4188C42F9D3094AAC
:10161C00094C002301E013600432A242FBD301F019
:10162C00F9FAFFF77FFA704700000020B80000209D
:10163C00BC2C0008B8000020DC010020FEE70000F4
:10164C0080B500AF084B1B68074A43F010031360CA
:10165C00032000F023F90F2000F008F8FFF7D8FB67
:10166C000023184680BD00BF0020024080B582B028
:10167C0000AF7860124B1A68124B1B7819464FF466
:10168C007A73B3FBF1F3B2FBF3F3184600F03BF9BA
:10169C000346002B01D001230EE07B680F2B0AD8E8
:1016AC00002279684FF0FF3000F003F9064A7B689E
:1016BC001360002300E0012318460837BD4680BDA7
:1016CC00AC000020B4000020B000002080B400AFBB
:1016DC00054B1B781A46054B1B681344034A1360D1
:1016EC0000BFBD4680BC7047B4000020D80100206C
:1016FC0080B400AF024B1B681846BD4680BC7047D7
:10170C00D801002080B485B000AF78607B6803F00E
:10171C000703FB600C4BDB68BB60BA684FF6FF033A
:10172C001340BB60FB681A02BB68134343F0BF63F2
:10173C0043F40033BB60044ABB68D36000BF14376A
:10174C00BD4680BC704700BF00ED00E080B400AF28
:10175C00044BDB681B0A03F007031846BD4680BC2C
:10176C00704700BF00ED00E080B483B000AF0346CB
:10177C00FB7197F90730002B0BDBFB7903F01F0291
:10178C00064997F907305B09012000FA02F241F88B
:10179C00232000BF0C37BD4680BC704700E100E041
:1017AC0080B483B000AF03463960FB7197F9073002
:1017BC00002B0ADB3B68DAB20C4997F907301201AF
:1017CC00D2B20B4483F800230AE03B68DAB2084932
:1017DC00FB7903F00F03043B1201D2B20B441A76CF
:1017EC0000BF0C37BD4680BC704700BF00E100E075
:1017FC0000ED00E080B489B000AFF860B9607A60A9
:10180C00FB6803F00703FB61FB69C3F10703042BBF
:10181C0028BF0423BB61FB690433062B02D9FB6987
:10182C00033B00E000237B614FF0FF32BB6902FAFF
:10183C0003F3DA43BB681A407B699A404FF0FF31DF
:10184C007B6901FA03F3D9437B680B4013431846B9
:10185C002437BD4680BC704780B582B000AF78603D
:10186C007B68013BB3F1807F01D301230FE00A4A6F
:10187C007B68013B53600F214FF0FF30FFF790FF67
:10188C00054B00229A60044B07221A60002318466D
:10189C000837BD4680BD00BF10E000E080B582B0C7
:1018AC0000AF78607868FFF72DFF00BF0837BD46A2
:1018BC0080BD80B586B000AF0346B9607A60FB731B
:1018CC0000237B61FFF742FF78617A68B968786919
:1018DC00FFF790FF024697F90F3011461846FFF7B5
:1018EC005FFF00BF1837BD4680BD80B582B000AF2A
:1018FC000346FB7197F907301846FFF735FF00BF19
:10190C000837BD4680BD80B582B000AF786078687E
:10191C00FFF7A2FF034618460837BD4680BD0000FE
:10192C0080B48BB000AF7860396000237B620023F9
:10193C003B6248E101227B6A02FA03F3FB613B68DC
:10194C001B68FA691340BB61BA69FB699A4240F0A3
:10195C0037813B685B68A34A93425ED0A14A9342AD
:10196C0075D8A14A934258D09F4A93426FD89F4A48
:10197C00934252D09D4A934269D89D4A93424CD08F
:10198C009B4A934263D89B4A934246D0994A9342CE
:10199C005DD8122B2AD8122B59D801A252F823F059
:1019AC00271A0008011A0008131A0008551A000813
:1019BC005B1A00085B1A00085B1A00085B1A000827
:1019CC005B1A00085B1A00085B1A00085B1A000817
:1019DC005B1A00085B1A00085B1A00085B1A000807
:1019EC005B1A0008091A00081D1A0008824A934263
:1019FC0013D02CE03B68DB683B6229E03B68DB687A
:101A0C0004333B6224E03B68DB6808333B621FE035
:101A1C003B68DB680C333B621AE03B689B68002B2D
:101A2C0002D104233B6213E03B689B68012B05D178
:101A3C0008233B627B68FA691A6109E008233B6260
:101A4C007B68FA695A6103E000233B6200E000BF47
:101A5C00BB69FF2B01D87B6801E07B6804337B6199
:101A6C00BB69FF2B02D87B6A9B0002E07B6A083BB8
:101A7C009B003B617B691A680F213B6901FA03F3F8
:101A8C00DB431A40396A3B6901FA03F31A437B6959
:101A9C001A603B685B6803F08053002B00F0908069
:101AAC00564B9B69554A43F001039361534B9B6919
:101ABC0003F00103BB60BB68514A7B6A9B0802338D
:101ACC0052F82330FB607B6A03F003039B000F2268
:101ADC0002FA03F3DB43FA681340FB607B68494A64
:101AEC0093420DD07B68484A934207D07B68474AA3
:101AFC00934201D1022304E0032302E0012300E01E
:101B0C0000237A6A02F0030292009340FA681343AE
:101B1C00FB603B497B6A9B080233FA6841F823203F
:101B2C003B685B6803F48013002B06D0384B9A6833
:101B3C003749BB6913438B6006E0354B9A68BB6928
:101B4C00DB43334913408B603B685B6803F4001341
:101B5C00002B06D02E4BDA682D49BB691343CB60A2
:101B6C0006E02B4BDA68BB69DB4329491340CB6099
:101B7C003B685B6803F40033002B06D0244B5A6897
:101B8C002349BB6913434B6006E0214B5A68BB6980
:101B9C00DB431F4913404B603B685B6803F48033A5
:101BAC00002B06D01A4B1A681949BB6913430B60FA
:101BBC0006E0174B1A68BB69DB43154913400B60F1
:101BCC007B6A01337B623B681A687B6A22FA03F3F7
:101BDC00002B7FF4AFAE00BF00BF2C37BD4680BCDE
:101BEC00704700BF000032100000311000002210BE
:101BFC000000211000001210000011100010024013
:101C0C000000014000080140000C014000100140A0
:101C1C000004014080B485B000AF78600B467B8037
:101C2C007B689A687B881340002B02D00123FB73DE
:101C3C0001E00023FB73FB7B18461437BD4680BCC8
:101C4C00704780B483B000AF78600B467B8013463E
:101C5C007B707B78002B03D07A887B681A6103E059
:101C6C007B881A047B681A6100BF0C37BD4680BCA8
:101C7C00704780B485B000AF78600B467B807B6882
:101C8C00DB68FB607A88FB6813401A04FB68D94355
:101C9C007B880B401A437B681A6100BF1437BD4622
:101CAC0080BC704780B586B000AF78607B68002B35
:101CBC0001D101236CE27B681B6803F00103002B4C
:101CCC0000F08780924B5B6803F00C03042B0CD064
:101CDC008F4B5B6803F00C03082B12D18C4B5B68A9
:101CEC0003F48033B3F5803F0BD1894B1B6803F4AD
:101CFC000033002B6CD07B685B68002B68D1012310
:101D0C0046E27B685B68B3F5803F06D1804B1B686D
:101D1C007F4A43F4803313602EE07B685B68002BB2
:101D2C000CD17B4B1B687A4A23F480331360784BBD
:101D3C001B68774A23F4802313601DE07B685B6883
:101D4C00B3F5A02F0CD1724B1B68714A43F480235E
:101D5C0013606F4B1B686E4A43F4803313600BE0C7
:101D6C006B4B1B686A4A23F480331360684B1B6807
:101D7C00674A23F4802313607B685B68002B13D0C5
:101D8C00FFF7B6FC386108E0FFF7B2FC02463B698E
:101D9C00D31A642B01D90323FAE15D4B1B6803F4BE
:101DAC000033002BF0D014E0FFF7A2FC386108E000
:101DBC00FFF79EFC02463B69D31A642B01D903231F
:101DCC00E6E1534B1B6803F40033002BF0D100E029
:101DDC0000BF7B681B6803F00203002B63D04C4BE5
:101DEC005B6803F00C03002B0BD0494B5B6803F0D2
:101DFC000C03082B1CD1464B5B6803F48033002B7F
:101E0C0016D1434B1B6803F00203002B05D07B68F3
:101E1C001B69012B01D00123BAE13D4B1B6823F058
:101E2C00F8027B685B69DB00394913430B603AE0CD
:101E3C007B681B69002B20D0364B01221A60FFF700
:101E4C0057FC386108E0FFF753FC02463B69D31A94
:101E5C00022B01D903239BE12D4B1B6803F00203DA
:101E6C00002BF0D02A4B1B6823F0F8027B685B69CF
:101E7C00DB00274913430B6015E0264B00221A6048
:101E8C00FFF736FC386108E0FFF732FC02463B698D
:101E9C00D31A022B01D903237AE11D4B1B6803F0E3
:101EAC000203002BF0D17B681B6803F00803002BA6
:101EBC003AD07B689B69002B19D0174B01221A6012
:101ECC00FFF716FC386108E0FFF712FC02463B698D
:101EDC00D31A022B01D903235AE10D4B5B6A03F091
:101EEC000203002BF0D0012000F09AFA1CE00A4B00
:101EFC0000221A60FFF7FCFB38610FE0FFF7F8FBDC
:101F0C0002463B69D31A022B08D9032340E100BFD8
:101F1C000010024000004242800442429E4B5B6A29
:101F2C0003F00203002BE9D17B681B6803F0040368
:101F3C00002B00F0A6800023FB75974BDB6903F0A8
:101F4C008053002B0DD1944BDB69934A43F08053A3
:101F5C00D361914BDB6903F08053BB60BB680123F9
:101F6C00FB758E4B1B6803F48073002B18D18B4BC5
:101F7C001B688A4A43F480731360FFF7B9FB38611E
:101F8C0008E0FFF7B5FB02463B69D31A642B01D975
:101F9C000323FDE0814B1B6803F48073002BF0D00E
:101FAC007B68DB68012B06D17B4B1B6A7A4A43F0BA
:101FBC00010313622DE07B68DB68002B0CD1764BA0
:101FCC001B6A754A23F001031362734B1B6A724A36
:101FDC0023F0040313621CE07B68DB68052B0CD137
:101FEC006D4B1B6A6C4A43F0040313626A4B1B6A09
:101FFC00694A43F0010313620BE0674B1B6A664AA4
:10200C0023F001031362644B1B6A634A23F004033D
:10201C0013627B68DB68002B15D0FFF769FB386116
:10202C000AE0FFF765FB02463B69D31A41F288329E
:10203C00934201D90323ABE0574B1B6A03F0020315
:10204C00002BEED014E0FFF753FB38610AE0FFF7EA
:10205C004FFB02463B69D31A41F28832934201D9B5
:10206C00032395E04C4B1B6A03F00203002BEED1CB
:10207C00FB7D012B05D1484BDB69474A23F080538C
:10208C00D3617B68DB69002B00F08180424B5B687D
:10209C0003F00C03082B61D07B68DB69022B46D163
:1020AC003F4B00221A60FFF723FB386108E0FFF773
:1020BC001FFB02463B69D31A022B01D9032367E0AD
:1020CC00354B1B6803F00073002BF0D17B681B6A47
:1020DC00B3F5803F08D1304B5B6823F400327B684A
:1020EC009B682D4913434B602B4B5B6823F4741294
:1020FC007B68196A7B685B6A0B43274913434B6007
:10210C00274B01221A60FFF7F3FA386108E0FFF75A
:10211C00EFFA02463B69D31A022B01D9032337E0AD
:10212C001D4B1B6803F00073002BF0D02FE01C4BF1
:10213C0000221A60FFF7DCFA386108E0FFF7D8FAE2
:10214C0002463B69D31A022B01D9032320E0124B20
:10215C001B6803F00073002BF0D118E07B68DB697F
:10216C00012B01D1012313E00B4B5B68FB60FB6877
:10217C0003F480327B681B6A9A4206D1FB6803F435
:10218C0070127B685B6A9A4201D0012300E0002345
:10219C0018461837BD4680BD001002400070004044
:1021AC006000424280B584B000AF786039607B68D3
:1021BC00002B01D10123D0E06A4B1B6803F007030D
:1021CC003A689A4210D9674B1B6823F0070265499D
:1021DC003B6813430B60634B1B6803F007033A68BF
:1021EC009A4201D00123B8E07B681B6803F002031C
:1021FC00002B20D07B681B6803F00403002B05D058
:10220C00594B5B68584A43F4E06353607B681B6826
:10221C0003F00803002B05D0534B5B68524A43F480
:10222C0060535360504B5B6823F0F0027B689B68F3
:10223C004D4913434B607B681B6803F00103002B73
:10224C0040D07B685B68012B07D1474B1B6803F4BC
:10225C000033002B15D101237FE07B685B68022BD8
:10226C0007D1414B1B6803F00073002B09D10123EC
:10227C0073E03D4B1B6803F00203002B01D10123DB
:10228C006BE0394B5B6823F003027B685B68364973
:10229C0013434B60FFF72CFAF8600AE0FFF728FABB
:1022AC000246FB68D31A41F28832934201D90323C8
:1022BC0053E02D4B5B6803F00C027B685B689B0062
:1022CC009A42EBD1274B1B6803F007033A689A42FA
:1022DC0010D2244B1B6823F0070222493B6813439E
:1022EC000B60204B1B6803F007033A689A4201D03D
:1022FC00012332E07B681B6803F00403002B08D039
:10230C00194B5B6823F4E0627B68DB681649134366
:10231C004B607B681B6803F00803002B09D0124B41
:10232C005B6823F460527B681B69DB000E49134326
:10233C004B6000F021F802460B4B5B681B0903F065
:10234C000F030A49CB5C22FA03F3094A1360094BC9
:10235C001B681846FFF78AF9002318461037BD464C
:10236C0080BD00BF0020024000100240902C0008ED
:10237C00AC000020B000002080B487B000AF002378
:10238C00FB600023BB6000237B6100237B60002388
:10239C003B611E4B5B68FB60FB6803F00C03042B7A
:1023AC0002D0082B03D027E0194B3B6127E0FB68D8
:1023BC009B0C03F00F03174AD35C7B60FB6803F4A0
:1023CC008033002B10D0114B5B685B0C03F00103C6
:1023DC00114AD35CBB607B680D4A02FB03F2BB68FD
:1023EC00B2FBF3F37B6104E07B680C4A02FB03F362
:1023FC007B617B693B6102E0054B3B6100BF3B6944
:10240C0018461C37BD4680BC704700BF0010024008
:10241C0000127A00A02C0008B02C000800093D0026
:10242C0080B485B000AF78600A4B1B680A4AA2FBE7
:10243C0003235B0A7A6802FB03F3FB6000BFFB68B3
:10244C005A1EFA60002BF9D100BF00BF1437BD46ED
:10245C0080BC7047AC000020D34D621080B582B0B8
:10246C0000AF78607B68002B01D1012341E07B68D1
:10247C0093F83D30DBB2002B06D17B68002283F849
:10248C003C207868FEF7F6FC7B68022283F83D203E
:10249C007B681A687B6804331946104600F056FABC
:1024AC007B68012283F846207B68012283F83E205A
:1024BC007B68012283F83F207B68012283F840204F
:1024CC007B68012283F841207B68012283F842203B
:1024DC007B68012283F843207B68012283F8442027
:1024EC007B68012283F845207B68012283F83D201C
:1024FC00002318460837BD4680BD000080B485B067
:10250C0000AF78607B6893F83D30DBB2012B01D0D3
:10251C00012335E07B68022283F83D207B681B6831
:10252C00DA687B681B6842F00102DA607B681B6822
:10253C00164A934209D07B681B68B3F1804F04D0D4
:10254C007B681B68124A934211D17B681B689B689D
:10255C0003F00703FB60FB68062B10D07B681B683D
:10256C001A687B681B6842F001021A6007E07B68FE
:10257C001B681A687B681B6842F001021A60002312
:10258C0018461437BD4680BC704700BF002C014074
:10259C000004004080B584B000AF78607B681B6895
:1025AC00DB68FB607B681B681B69BB60BB6803F066
:1025BC000203002B20D0FB6803F00203002B1BD07E
:1025CC007B681B686FF002021A617B6801221A7724
:1025DC007B681B689B6903F00303002B03D07868AE
:1025EC0000F098F905E0786800F08BF9786800F055
:1025FC009AF97B6800221A77BB6803F00403002B5E
:10260C0020D0FB6803F00403002B1BD07B681B68F5
:10261C006FF004021A617B6802221A777B681B68D0
:10262C009B6903F44073002B03D0786800F072F9B7
:10263C0005E0786800F065F9786800F074F97B685B
:10264C0000221A77BB6803F00803002B20D0FB682C
:10265C0003F00803002B1BD07B681B686FF008028B
:10266C001A617B6804221A777B681B68DB6903F0AC
:10267C000303002B03D0786800F04CF905E0786870
:10268C0000F03FF9786800F04EF97B6800221A7769
:10269C00BB6803F01003002B20D0FB6803F0100381
:1026AC00002B1BD07B681B686FF010021A617B68D3
:1026BC0008221A777B681B68DB6903F44073002BD4
:1026CC0003D0786800F026F905E0786800F019F975
:1026DC00786800F028F97B6800221A77BB6803F051
:1026EC000103002B0CD0FB6803F00103002B07D077
:1026FC007B681B686FF001021A617868FEF722FB99
:10270C00BB6803F08003002B0CD0FB6803F0800344
:10271C00002B07D07B681B686FF080021A61786809
:10272C0000F06FFABB6803F04003002B0CD0FB6881
:10273C0003F04003002B07D07B681B686FF040024E
:10274C001A61786800F0F8F8BB6803F02003002BDE
:10275C000CD0FB6803F02003002B07D07B681B68B0
:10276C006FF020021A61786800F042FA00BF10374F
:10277C00BD4680BD80B584B000AF78603960002361
:10278C00FB737B6893F83C30012B01D10223B4E03E
:10279C007B68012283F83C207B68022283F83D2071
:1027AC007B681B689B68BB60BB6823F07703BB60CE
:1027BC00BB6823F47F43BB607B681B68BA689A6074
:1027CC003B681B68B3F5005F3ED0B3F5005F00F2C9
:1027DC008780B3F5805F00F08680B3F5805F7FD88B
:1027EC00702B1AD0702B7BD8602B50D0602B77D8E5
:1027FC00502B3CD0502B73D8402B58D0402B6FD83B
:10280C00302B64D0302B6BD8202B60D0202B67D88A
:10281C00002B5CD0102B5AD062E07B6818683B68A8
:10282C0099683B685A683B68DB6800F06AF97B681A
:10283C001B689B68BB60BB6843F07703BB607B681D
:10284C001B68BA689A604FE07B6818683B689968A7
:10285C003B685A683B68DB6800F053F97B681B687F
:10286C009A687B681B6842F480429A603CE07B6803
:10287C0018683B6859683B68DB681A4600F0CAF870
:10288C007B681B685021184600F021F92CE07B680E
:10289C0018683B6859683B68DB681A4600F0E8F832
:1028AC007B681B686021184600F011F91CE07B68FE
:1028BC0018683B6859683B68DB681A4600F0AAF850
:1028CC007B681B684021184600F001F90CE07B681E
:1028DC001A683B681B681946104600F0F8F803E0CC
:1028EC000123FB7300E000BF7B68012283F83D20CD
:1028FC007B68002283F83C20FB7B18461037BD46D2
:10290C0080BD80B483B000AF786000BF0C37BD468B
:10291C0080BC704780B483B000AF786000BF0C37C8
:10292C00BD4680BC704780B483B000AF786000BFF8
:10293C000C37BD4680BC704780B483B000AF786064
:10294C0000BF0C37BD4680BC7047000080B485B01A
:10295C0000AF786039607B681B68FB607B682B4A32
:10296C00934207D07B68B3F1804F03D07B68284A31
:10297C00934208D1FB6823F07003FB603B685B68F3
:10298C00FA681343FB607B68204A934207D07B684C
:10299C00B3F1804F03D07B681D4A934208D1FB688A
:1029AC0023F44073FB603B68DB68FA681343FB60FD
:1029BC00FB6823F080023B685B691343FB607B6818
:1029CC00FA681A603B689A687B68DA623B681A6836
:1029DC007B689A627B680D4A934203D13B681A6903
:1029EC007B681A637B6801225A617B681B6903F060
:1029FC000103002B05D07B681B6923F001027B6867
:102A0C001A6100BF1437BD4680BC7047002C0140D2
:102A1C000004004080B487B000AFF860B9607A6001
:102A2C00FB681B6A7B61FB681B6A23F00102FB6875
:102A3C001A62FB689B693B613B6923F0F0033B61C5
:102A4C007B681B013A6913433B617B6923F00A03E2
:102A5C007B617A69BB6813437B61FB683A699A6155
:102A6C00FB687A691A6200BF1C37BD4680BC704790
:102A7C0080B487B000AFF860B9607A60FB681B6AFD
:102A8C007B61FB681B6A23F01002FB681A62FB680F
:102A9C009B693B613B6923F470433B617B681B037F
:102AAC003A6913433B617B6923F0A0037B61BB68EC
:102ABC001B017A6913437B61FB683A699A61FB6875
:102ACC007A691A6200BF1C37BD4680BC704780B45F
:102ADC0085B000AF786039607B689B68FB60FB68F1
:102AEC0023F07003FB603A68FB68134343F0070361
:102AFC00FB607B68FA689A6000BF1437BD4680BCE7
:102B0C00704780B487B000AFF860B9607A603B6002
:102B1C00FB689B687B617B6923F47F437B613B682B
:102B2C001A027B681A43BB6813437A6913437B61AF
:102B3C00FB687A699A6000BF1C37BD4680BC704741
:102B4C0080B485B000AF786039607B6893F83C3016
:102B5C00012B01D1022341E07B68012283F83C2048
:102B6C007B68022283F83D207B681B685B68FB60F6
:102B7C007B681B689B68BB60FB6823F07003FB6081
:102B8C003B681B68FA681343FB607B681B68FA6838
:102B9C005A607B681B68144A934209D07B681B6897
:102BAC00B3F1804F04D07B681B68104A93420CD160
:102BBC00BB6823F08003BB603B685B68BA68134357
:102BCC00BB607B681B68BA689A607B68012283F8DB
:102BDC003D207B68002283F83C20002318461437E4
:102BEC00BD4680BC704700BF002C01400004004073
:102BFC0080B483B000AF786000BF0C37BD4680BC9A
:102C0C00704780B483B000AF786000BF0C37BD460E
:102C1C0080BC704770B500260C4D0D4C641BA41085
:102C2C00A64209D100F022F800260A4D0A4C641B7A
:102C3C00A410A64205D170BD55F8043B9847013647
:102C4C00EEE755F8043B98470136F2E7B42C000840
:102C5C00B42C0008B42C0008B82C0008034602441D
:102C6C00934200D1704703F8011BF9E7F8B500BF98
:102C7C00F8BC08BC9E467047F8B500BFF8BC08BC51
:042C8C009E467047A9
:102C9000000000000000000001020304060708090C
:102CA00002030405060708090A0B0C0D0E0F10108D
:042CB000010200001D
:042CB40031010008E2
:042CB8000D01000802
:102CBC00000C0140000C0140000C0140000C0140D4
:102CCC00000C0140000C0140000C014000080140C8
:102CDC0000080140000801400008014000080140C4
:102CEC000008014000080140010002000400080037
:102CFC001000200040000001000200040008001039
:102D0C000020004000000000000001010000010153
:102D1C0001010000010000010000000000010100A1
:102D2C000100000101000000010000010000000191
:102D3C000000000000000000010101010000000083
:102D4C000000000000000001000000006400000012
:102D5C00F40100002C010000C800000000127A00F1
:082D6C0010000000010000004E
:0400000508001601D8
:00000001FF
