:020000040800F2
:10000000002800206D1B00088116000887160008D4
:100010008D160008931600089916000800000000CD
:100020000000000000000000000000009F16000813
:10003000AB16000800000000B7160008C316000841
:10004000B51B0008B51B0008B51B0008B51B000850
:10005000B51B0008B51B0008B51B0008B51B000840
:10006000B51B0008B51B0008B51B0008B51B000830
:10007000B51B0008B51B0008B51B0008B51B000820
:10008000B51B0008B51B0008B51B0008B51B000810
:10009000B51B0008B51B0008B51B0008B51B000800
:1000A000B51B0008B51B0008B51B0008B51B0008F0
:1000B000D1160008B51B000800000000B51B0008A1
:1000C000B51B00080000000000000000B51B000880
:1000D00000000000B51B0008B51B00080000000070
:1000E000B51B0008B51B0008B51B00080000000088
:1000F0000000000000000000000000000000000000
:0C01000000000000000000005FF808F1A3
:10010C0010B5054C237833B9044B13B10448AFF345
:10011C0000800123237010BDB400002000000000FB
:10012C00E431000808B5034B1BB103490348AFF396
:10013C00008008BD00000000B8000020E431000879
:10014C0080B483B000AF01237B601BE0124A7B6854
:10015C00012142F82310114A7B68012142F8231037
:10016C000F4A7B68012142F823100E4A7B6801215B
:10017C0042F823100C4A7B68002142F823107B685C
:10018C0001337B607B68032BE0DD00BF00BF0C37C5
:10019C00BD4680BC704700BF6404002024040020CE
:1001AC0074040020540400204404002080B584B062
:1001BC0000AFF860B9601346FB80344AFB6852F814
:1001CC0023203349FB6841F82320324AFB6852F85C
:1001DC0023202E49FB6841F82320FB881946B86878
:1001EC0001F0CEFF034619462A4AFB6842F8231059
:1001FC00274AFB6852F823202449FB6851F8233026
:10020C009A423ED1214AFB6852F823202149FB68CF
:10021C0051F823309A4234D11F4AFB6852F82320FC
:10022C001C49FB6851F823309A4216D0194AFB68D6
:10023C0052F823201849FB6841F82320154AFB6823
:10024C0052F82330002B1CD1F86800F05FF8134AE9
:10025C00FB68C82142F8231013E0104AFB6852F8DF
:10026C0023305A1E0D49FB6841F823200B4AFB68CA
:10027C0052F82330002B04D1074AFB68012142F8C5
:10028C00231000BF1037BD4680BD00BF24040020E2
:10029C006404002074040020540400203404002062
:1002AC0080B500AF4FF4005208490120FFF77EFFE4
:1002BC004FF4804205490220FFF778FF4FF40042CB
:1002CC0002490320FFF772FF00BF80BD0010014000
:1002DC0080B483B000AF78607B68032B01DD002312
:1002EC000DE0094A7B6852F82330012B06D1064AEF
:1002FC007B68002142F82310012300E000231846FC
:10030C000C37BD4680BC70474404002080B483B0D9
:10031C0000AF7860044A7B68012142F8231000BFCB
:10032C000C37BD4680BC70474404002080B584B0B7
:10033C0000AF78600023FB6011E00D4AFB6852F8B7
:10034C0023000C4AFB6832F81310FB687A681344DC
:10035C001B781A4601F02BFFFB680133FB60FB682E
:10036C00062BEADD00BF00BF1037BD4680BD00BFC5
:10037C00000000203800002080B582B000AF78600B
:10038C007B68092B3ED801A252F823F0C103000868
:10039C00C9030008D1030008D9030008E1030008D1
:1003AC00E9030008F1030008F90300080104000840
:1003BC00090400081648FFF7B9FF24E01548FFF7B9
:1003CC00B5FF20E01448FFF7B1FF1CE01348FFF71E
:1003DC00ADFF18E01248FFF7A9FF14E01148FFF732
:1003EC00A5FF10E01048FFF7A1FF0CE00F48FFF746
:1003FC009DFF08E00E48FFF799FF04E00D48FFF75A
:10040C0095FF00E000BF00BF0837BD4680BD00BFB0
:10041C00540000205B0000206200002069000020D6
:10042C0070000020770000207E0000208500002056
:10043C008C0000209300002080B584B000AF786061
:10044C000723FB6012E00D4AFB6852F823000C4AAC
:10045C00FB6832F81310FB68073B7A6813441B786F
:10046C001A4601F0A4FEFB680133FB60FB680D2B00
:10047C00E9DD00BF00BF1037BD4680BD0000002085
:10048C003800002080B582B000AF78607B68092B03
:10049C003ED801A252F823F0CD040008D504000880
:1004AC00DD040008E5040008ED040008F50400086C
:1004BC00FD040008050500080D05000815050008D9
:1004CC001648FFF7B9FF24E01548FFF7B5FF20E009
:1004DC001448FFF7B1FF1CE01348FFF7ADFF18E01D
:1004EC001248FFF7A9FF14E01148FFF7A5FF10E031
:1004FC001048FFF7A1FF0CE00F48FFF79DFF08E045
:10050C000E48FFF799FF04E00D48FFF795FF00E058
:10051C0000BF00BF0837BD4680BD00BF540000209F
:10052C005B000020620000206900002070000020A9
:10053C00770000207E000020850000208C00002029
:10054C009300002080B500AF944B5B68052B00F244
:10055C00868301A252F823F07D0500086B0C00087D
:10056C006B0C0008AD0A0008D705000889080008C4
:10057C008B4B1B688B4A82FB03125211DB17D31A6D
:10058C00894A1360894B1B68864A82FB03125211FD
:10059C00DB17D31A864A1360864B1B68814A82FB91
:1005AC0003125211DB17D31A834A1360834B0122B7
:1005BC001A606421032000F0ABFF3221052000F00B
:1005CC00A7FF764B04225A6050E3794B1B68002B33
:1005DC000ADD00F0E5FB744B1B68002B02DD00F01C
:1005EC0021FC01E000F04AFC744B1B68012B3ED14E
:1005FC0000224FF48041724801F0D9FD00224FF4E3
:10060C0000416F4801F0D3FD01224FF480516C483A
:10061C0001F0CDFD01224FF40051694801F0C7FDF6
:10062C00634B1A68674B83FB02139910D317C91AD3
:10063C000B469B000B445B00D11A0846FFF722FFC8
:10064C00594B1B68002B0FDD574B1A685D4B83FB16
:10065C0002139910D317C91A0B469B000B445B006D
:10066C00D11A0846FFF788FE544B00221A6001226B
:10067C004FF40071524801F09AFD534B5B69012B0A
:10068C0041D101224FF480414D4801F090FD0122EF
:10069C004FF400414A4801F08AFD00224FF480518A
:1006AC00474801F084FD00224FF40051444801F00A
:1006BC007EFD3F4B1B68434A82FB03129210DB17F3
:1006CC00D31A1846FFF758FE374B1B68002B0BDD6F
:1006DC00354B1B683B4A82FB03129210DB17D31A73
:1006EC001846FFF7CFFE0AE0334B1B68354A82FBF6
:1006FC0003129210DB17D31A1846FFF7C3FE3221F0
:10070C00052000F005FF304BDB68012B7BD100226C
:10071C004FF480412A4801F04AFD00224FF4004179
:10072C00274801F044FD01224FF48051244801F088
:10073C003EFD01224FF40051214801F038FD1C4BC5
:10074C001B68013B1A4A1360174B1B68013B164A86
:10075C001360174B1A681B4B83FB02139910D317AA
:10076C00C91A0B469B000B445B00D11A0846FFF7D5
:10077C0089FE0D4B1B68002B28DD0B4B1A68114BA7
:10078C0083FB02139910D317C91A0B469B000B4419
:10079C005B00D11A0846FFF7EFFD27E0E0000020D0
:1007AC00A00000201F85EB51FC0000209C000020C5
:1007BC00D0000020A400002000010020DC0000205C
:1007CC00000C014067666666EC040020A54B1A68B5
:1007DC00A54B83FB02139910D317C91A0B469B0028
:1007EC000B445B00D11A0846FFF7C6FD9F4B1B68F4
:1007FC00002B04DC9B4B1B68013B9A4A1360642161
:10080C00032000F085FE9A4B1B68002B21D1994BDD
:10081C001B68994A82FB03125211DB17D31A974AB1
:10082C001360974B1B68944A82FB03125211DB171F
:10083C00D31A944A1360944B01221A60934B0522ED
:10084C005A603221052000F063FE6421032000F081
:10085C005FFE0120FFF73CFD0346012B40F00182B7
:10086C0000F07AFA3221042000F052FE64210620B6
:10087C0000F04EFE854B0C225A60F7E100F0BCFAFA
:10088C0000F0A4FA804B1B68012B3AD100224FF4E4
:10089C0080417F4801F08BFC00224FF400417C48E2
:1008AC0001F085FC01224FF48051794801F07FFC66
:1008BC0001224FF40051764801F079FC714B1A6813
:1008CC00694B83FB02139910D317C91A0B469B0073
:1008DC000B445B00D11A0846FFF7D4FD674B1A682E
:1008EC00614B83FB02139910D317C91A0B469B005B
:1008FC000B445B00D11A0846FFF73EFD624B002209
:10090C001A60644B5B69012B31D13221052000F058
:10091C00FFFD01224FF480415D4801F048FC0122AB
:10092C004FF400415A4801F042FC00224FF4805130
:10093C00574801F03CFC00224FF40051544801F0A0
:10094C0036FC504B1B68484A82FB03129210DB1793
:10095C00D31A1846FFF710FD484B1B68424A82FB1E
:10096C0003129210DB17D31A1846FFF78BFD494B75
:10097C00DB68012B45D16421032000F0C9FD002266
:10098C004FF48041424801F012FC00224FF4004128
:10099C003F4801F00CFC01224FF480513C4801F01F
:1009AC0006FC01224FF40051394801F000FC334B96
:1009BC001B68013B314A1360324B1B68013B314AC7
:1009CC001360304B1A68284B83FB02139910D31712
:1009DC00C91A0B469B000B445B00D11A0846FFF763
:1009EC0051FD264B1A68204B83FB02139910D31729
:1009FC00C91A0B469B000B445B00D11A0846FFF743
:100A0C00BBFC204B1B68002B17D13221052000F0BA
:100A1C007FFD6421032000F07BFD1B4B01221A603B
:100A2C001D4B1B68144A82FB03125211DB17D31A9D
:100A3C001A4A1360154B03225A600120FFF748FC39
:100A4C000346012B40F00F8100F086F9322104207F
:100A5C0000F05EFD6421062000F05AFD0B4B0C22C9
:100A6C005A6003E10001002067666666FC00002006
:100A7C00D00000209C0000201F85EB51F8000020C6
:100A8C00A0000020D4000020DC000020E0000020AA
:100A9C00000C0140EC040020A4000020D800002031
:100AAC0000F0D6F900F092F9714B1B68012B3AD18A
:100ABC0000224FF480416F4801F079FB00224FF483
:100ACC0000416C4801F073FB01224FF480516948DE
:100ADC0001F06DFB01224FF40051664801F067FBF9
:100AEC00654B1A68654B83FB02139910D317C91A0F
:100AFC000B469B000B445B00D11A0846FFF7C2FC67
:100B0C005F4B1A685D4B83FB02139910D317C91AFC
:100B1C000B469B000B445B00D11A0846FFF72CFCDC
:100B2C00534B00221A60574B5B69012B31D10122C8
:100B3C004FF480414F4801F03AFB01224FF4004141
:100B4C004C4801F034FB00224FF48051494801F02D
:100B5C002EFB00224FF40051464801F028FB464B77
:100B6C001B68464A82FB03129210DB17D31A1846F5
:100B7C00FFF702FC424B1B68404A82FB03129210A7
:100B8C00DB17D31A1846FFF77DFC3221052000F045
:100B9C00BFFC3C4BDB68012B45D100224FF480415C
:100BAC00344801F004FB00224FF40041314801F0BD
:100BBC00FEFA01224FF480512E4801F0F8FA01227E
:100BCC004FF400512B4801F0F2FA2D4B1B68013BFE
:100BDC002B4A1360284B1B68013B274A1360264B9A
:100BEC001A68264B83FB02139910D317C91A0B46AC
:100BFC009B000B445B00D11A0846FFF743FC204BCB
:100C0C001A681E4B83FB02139910D317C91A0B4693
:100C1C009B000B445B00D11A0846FFF7ADFB642127
:100C2C00032000F075FC0120FFF752FB0346012B5B
:100C3C000DD100F091F83221042000F069FC642100
:100C4C00062000F065FC104B0C225A600EE00A4B9B
:100C5C001B68002B09D10C4B00225A6005E000BF29
:100C6C0004E000BF02E000BF00E000BF80BD00BF99
:100C7C00DC000020000C0140D8000020676666668E
:100C8C00F8000020EC040020E000002080B500AF4C
:100C9C0002210E4801F0A3FA10210C4801F09FFA32
:100CAC0000220421094801F082FA00222021074881
:100CBC0001F07DFA00220821044801F078FA0022A4
:100CCC004021024801F073FA00BF80BD00080140CA
:100CDC0080B500AF04210E4801F081FA20210C48A8
:100CEC0001F07DFA00220221094801F060FA00228D
:100CFC001021074801F05BFA00220821044801F09A
:100D0C0056FA00224021024801F051FA00BF80BD82
:100D1C000008014080B500AF08210E4801F05FFAD1
:100D2C0040210C4801F05BFA00220221094801F035
:100D3C003EFA00221021074801F039FA0022042162
:100D4C00044801F034FA00222021024801F02FFA65
:100D5C0000BF80BD0008014080B500AF0022022119
:100D6C000E4801F024FA002210210C4801F01FFA61
:100D7C0000220421094801F01AFA00222021074818
:100D8C0001F015FA00220821044801F010FA0022A3
:100D9C004021024801F00BFA00BF80BD0008014061
:100DAC0080B500AF01220221074801F000FA0022B1
:100DBC000421054801F0FBF900220821024801F04A
:100DCC00F6F900BF80BD00BF0008014080B500AF40
:100DDC0001221021074801F0EAF9002220210548E0
:100DEC0001F0E5F900224021024801F0E0F900BFD2
:100DFC0080BD00BF0008014080B500AF0022022179
:100E0C00074801F0D4F901220421054801F0CFF97B
:100E1C0000220821024801F0CAF900BF80BD00BFC2
:100E2C000008014080B500AF00221021074801F0F6
:100E3C00BEF901222021054801F0B9F90022402118
:100E4C00024801F0B4F900BF80BD00BF00080140AA
:100E5C0080B500AF00220221074801F0A8F900225A
:100E6C000421054801F0A3F901220821024801F0F0
:100E7C009EF900BF80BD00BF0008014080B500AFE7
:100E8C0000221021074801F092F900222021054888
:100E9C0001F08DF901224021024801F088F900BFD0
:100EAC0080BD00BF0008014080B500AF00F07EFEA1
:100EBC0000F032F800F06CF800F0B6F8104801F0D1
:100ECC00D3FDFFF73DF900F031F90E4B00225A60CB
:100EDC000A2201210C4800F0C9F90A2201210B4811
:100EEC0000F0C4F964220121094800F0BFF9642222
:100EFC000121084800F0BAF900F0B4FAFCE700BF91
:100F0C0084040020E00000209D150008AD020008BC
:100F1C0051050008F116000880B590B000AF07F13C
:100F2C00180328220021184602F04EF93B1D00221E
:100F3C001A605A609A60DA601A610223BB6101235D
:100F4C00BB621023FB6200237B6307F11803184676
:100F5C0001F05EF90346002B01D000F0E1F80F23FD
:100F6C007B600023BB600023FB6000233B610023FC
:100F7C007B613B1D0021184601F0CAFB0346002B88
:100F8C0001D000F0CDF800BF4037BD4680BD000059
:100F9C0080B586B000AF07F1080300221A605A60D2
:100FAC009A60DA603B4600221A605A601D4B4FF083
:100FBC0080421A601B4B41F63F725A60194B00225B
:100FCC009A60184B0922DA60164B00221A61154BF5
:100FDC0000229A61134801F0F7FC0346002B01D064
:100FEC0000F09EF84FF48053BB6007F108031946DC
:100FFC000C4801F075FE0346002B01D000F090F870
:10100C0000233B6000237B603B461946054802F0F9
:10101C004DF80346002B01D000F082F800BF1837C2
:10102C00BD4680BD8404002080B588B000AF07F1B8
:10103C00100300221A605A609A60DA602F4B9B6989
:10104C002E4A43F0100393612C4B9B6903F0100361
:10105C00FB60FB68294B9B69284A43F004039361AE
:10106C00264B9B6903F00403BB60BB68234B9B6955
:10107C00224A43F008039361204B9B6903F0080359
:10108C007B607B68002247F67E711D4801F08FF86B
:10109C0000224FF27F211B4801F089F84FF4604386
:1010AC003B6100237B610123BB6107F110031946EF
:1010BC00154800F0EBFE47F67E733B6101237B6124
:1010CC000023BB610223FB6107F1100319460C4896
:1010DC0000F0DCFE4FF27F233B6101237B61002398
:1010EC00BB610223FB6107F110031946054800F0B0
:1010FC00CDFE00BF2037BD4680BD00BF00100240B2
:10110C0000080140000C01400010014080B582B085
:10111C0000AF786000F050F800BF0837BD4680BDC6
:10112C0080B400AF72B600BFFEE7000080B483B09D
:10113C0000AF00237B6033E01E497A6813469B00A6
:10114C0013449B000B4400221A601A497A68134618
:10115C009B0013449B000B44043300221A60154976
:10116C007A6813469B0013449B000B4408330022FF
:10117C001A6010497A6813469B0013449B000B4479
:10118C000C3300221A700B497A6813469B001344E7
:10119C009B000B44103300221A607B6801337B6088
:1011AC007B68272BC8DD00BF00BF0C37BD4680BC59
:1011BC00704700BF0401002080B483B000AF00234F
:1011CC007B6048E028497A6813469B0013449B00D7
:1011DC000B4404331B68002B13D023497A68134645
:1011EC009B0013449B000B4404331B68591E1E4880
:1011FC007A6813469B0013449B0003440433196024
:10120C0026E019497A6813469B0013449B000B4453
:10121C000833196814487A6813469B0013449B00E2
:10122C0003440433196010497A6813469B00134435
:10123C009B000B440C331B780133D8B20A497A68F3
:10124C0013469B0013449B000B440C3302461A704C
:10125C007B6801337B607B68272BB3DD00BF00BF4D
:10126C000C37BD4680BC70470401002080B487B0A9
:10127C0000AFF860B9607A600023FB7502E0FB7D7B
:10128C000133FB75FA7D234913469B0013449B00E5
:10129C000B441B68002B02D0FB7D272BEFD9FA7D6A
:1012AC001C4913469B0013449B000B44FA681A60BC
:1012BC00FA7D184913469B0013449B000B440433DE
:1012CC00BA681A60FA7D7B681349A1FB0313D9082D
:1012DC00104813469B0013449B00034408331960C9
:1012EC00FA7D0C4913469B0013449B000B440C33B2
:1012FC0000221A70FA7DF97D064813469B001344B0
:10130C009B0003441033196000BF1C37BD4680BCE2
:10131C00704700BF04010020CDCCCCCC80B485B08C
:10132C0000AF78604E497A6813469B0013449B00CB
:10133C000B4400221A604A497A6813469B001344F6
:10134C009B000B44083300221A6045497A68134607
:10135C009B0013449B000B44043300221A60404949
:10136C007A6813469B0013449B000B440C330022F9
:10137C001A703B497A6813469B0013449B000B443C
:10138C00103300221A607B68FB7360E0FB7B591CF6
:10139C00FA7B33480B469B000B449B0003441968B3
:1013AC002F4813469B0013449B0003441960FB7B9E
:1013BC00591CFA7B2A480B469B000B449B000344A8
:1013CC0008331968264813469B0013449B000344BA
:1013DC0008331960FB7B591CFA7B21480B469B0098
:1013EC000B449B000344043319681D4813469B00AF
:1013FC0013449B00034404331960FB7B591CFA7B98
:10140C0017480B469B000B449B0003440C33187885
:10141C00134913469B0013449B000B440C330246A8
:10142C001A70FB7B591CFA7B0D480B469B000B4436
:10143C009B00034410331968094813469B0013445E
:10144C009B00034410331960FB7B0133FB73FB7B64
:10145C00262B9BD900BF00BF1437BD4680BC7047FC
:10146C000401002080B582B000AF00237B6044E013
:10147C0026497A6813469B0013449B000B440C339B
:10148C001B78002B36D021497A6813469B001344F5
:10149C009B000B440C331B78013BD8B21B497A6878
:1014AC0013469B0013449B000B440C3302461A70EA
:1014BC0016497A6813469B0013449B000B441B6827
:1014CC00002B08D011497A6813469B0013449B00EB
:1014DC000B441B6898470D497A6813469B001344CC
:1014EC009B000B4408331B68002B03D17B68184608
:1014FC00FFF714FF7B6801337B607B68272BB7DD1C
:10150C0000BF00BF0837BD4680BD00BF04010020EE
:10151C0080B483B000AF7860396007497B683A6863
:10152C0041F82320054A7B68002142F8231000BFB4
:10153C000C37BD4680BC7047CC040020EC04002066
:10154C0080B483B000AF78600F4A7B6852F82330C8
:10155C00002B13DD0C4A7B6852F823305A1E0A49C3
:10156C007B6841F82320084A7B6852F82330002B13
:10157C0004DC064A7B68012142F8231000BF0C37BB
:10158C00BD4680BC704700BFCC040020EC0400209A
:10159C0080B500AF0020FFF7D3FF0120FFF7D0FF8D
:1015AC000220FFF7CDFF0320FFF7CAFF0420FFF74F
:1015BC00C7FF0520FFF7C4FF0620FFF7C1FF072078
:1015CC00FFF7BEFF00BF80BD80B485B000AF154BE8
:1015DC009B69144A43F001039361124B9B6903F01E
:1015EC000103BB60BB680F4BDB690E4A43F08053B1
:1015FC00D3610C4BDB6903F080537B607B680A4B37
:10160C005B68FB60FB6823F0E063FB60FB6843F006
:10161C008063FB60044AFB68536000BF1437BD460F
:10162C0080BC7047001002400000014080B584B0BF
:10163C0000AF78607B681B68B3F1804F13D10C4B03
:10164C00DB690B4A43F00103D361094BDB6903F0FF
:10165C000103FB60FB68002200211C2000F0DFFB73
:10166C001C2000F0F8FB00BF1037BD4680BD00BF4A
:10167C000010024080B400AFFEE780B400AFFEE77C
:10168C0080B400AFFEE780B400AFFEE780B400AFDB
:10169C00FEE780B400AF00BFBD4680BC704780B48D
:1016AC0000AF00BFBD4680BC704780B400AF00BF28
:1016BC00BD4680BC704780B500AF00F0BDFA00BFDE
:1016CC0080BD000080B500AF024801F019FA00BFE0
:1016DC0080BD00BF8404002080B400AF00BFBD46B5
:1016EC0080BC704780B500AFB64B5B680E2B00F02A
:1016FC0079810E2B00F31C820C2B03D00D2B00F0E8
:10170C00B18015E2B04B1B68002B03D1AF4B1B68AB
:10171C00AD4A1360AC4B1B6842F2AC62934203D1EE
:10172C00A94B4FF4FA721A60A94B1B69012B23D1F8
:10173C00FFF7ACFA01224FF48051A64800F037FDB8
:10174C0000224FF40051A34800F031FD00224FF469
:10175C008041A04800F02BFD01224FF400419D4830
:10176C0000F025FD0020FEF78DFE0220FEF704FEA2
:10177C0032210420FFF7CCFE954B9B69012B3CD109
:10178C0000224FF48051934800F011FD01224FF4D8
:10179C000051904800F00BFD01224FF480418D4820
:1017AC0000F005FD00224FF400418A4800F0FFFCD8
:1017BC00854B1B68884A82FB03129211DB17D31AE4
:1017CC001846FEF7D9FD804B1A68834B83FB021336
:1017DC009911D317CB1A4FF47A7101FB03F3D31A77
:1017EC007E4A82FB03125211DB17D31A1846FEF7FE
:1017FC0049FE64210620FFF78BFE0120FEF768FDF1
:10180C000346012B0FD16F4B0D225A606E4B0022F9
:10181C001A60FFF7A1FA32210420FFF779FE642148
:10182C000620FFF775FE0220FEF752FD0346012B42
:10183C0004D1654B1B686433634A13600320FEF7C5
:10184C0047FD0346012B40F07581FFF785FA5E4B8F
:10185C001B685E4A13605C4B00221A60594B0022D5
:10186C005A6067E1584B1B68002B03D15C4B1B681B
:10187C00554A1360544B1B6842F2AC62934203D13D
:10188C00514B4FF496721A60514B1B69012B23D1AB
:10189C00FFF71EFA01224FF480514E4800F087FCEE
:1018AC0000224FF400514B4800F081FC00224FF411
:1018BC008041484800F07BFC01224FF40041454830
:1018CC0000F075FC0020FEF7DDFD0320FEF754FD53
:1018DC0032210420FFF71CFE3D4B9B69012B3CD1B0
:1018EC0000224FF480513B4800F061FC01224FF480
:1018FC000051384800F05BFC01224FF48041354820
:10190C0000F055FC00224FF40041324800F04FFC2F
:10191C002D4B1B68304A82FB03129211DB17D31A32
:10192C001846FEF729FD284B1A682B4B83FB021334
:10193C009911D317CB1A4FF47A7101FB03F3D31A15
:10194C00264A82FB03125211DB17D31A1846FEF7F4
:10195C0099FD64210620FFF7DBFD0120FEF7B8FCA2
:10196C000346012B0FD1FFF7F7F9174B00221A6032
:10197C00144B0E225A6032210420FFF7C9FD64215A
:10198C000620FFF7C5FD0220FEF7A2FC0346012B43
:10199C0004D10D4B1B6864330B4A13600320FEF714
:1019AC0097FC0346012B40F0C780FFF7D5F9064B97
:1019BC001B680B4A1360044B00221A60014B002277
:1019CC005A60B9E0E0000020F40000209C000020E8
:1019DC00EC040020000C0140D34D62101F85EB512C
:1019EC00A0000020574B1B68002B03D1564B1B68E3
:1019FC00544A1360534B1B6842F2AC62934202D1BF
:101A0C00504BC8221A60514B1B69012B23D1FFF795
:101A1C0081F901224FF480514D4800F0C8FB00229F
:101A2C004FF400514A4800F0C2FB00224FF48041B1
:101A3C00474800F0BCFB01224FF40041444800F041
:101A4C00B6FB0020FEF71EFD0420FEF795FC3221AC
:101A5C000420FFF75DFD3D4B9B69012B3CD100221F
:101A6C004FF480513A4800F0A2FB01224FF4005190
:101A7C00374800F09CFB01224FF48041344800F0C1
:101A8C0096FB00224FF40041314800F090FB2D4BA7
:101A9C001B68304A82FB03129211DB17D31A1846CB
:101AAC00FEF76AFC274B1A682A4B83FB0213991129
:101ABC00D317CB1A4FF47A7101FB03F3D31A264ACE
:101ACC0082FB03125211DB17D31A1846FEF7DAFC0D
:101ADC0064210620FFF71CFD0120FEF7F9FB0346ED
:101AEC00012B07D11D4B00225A60164B00221A60A5
:101AFC00FFF732F90220FEF7EBFB0346012B04D172
:101B0C00104B1B6864330F4A13600320FEF7E0FB95
:101B1C000346012B12D1FFF71FF90A4B1B680A4A27
:101B2C001360084B00221A600C4B00225A6005E02F
:101B3C0000BF04E000BF02E000BF00E000BF00BF38
:101B4C0080BD00BFF4000020A4000020EC040020A5
:101B5C00000C0140D34D62101F85EB51E0000020BA
:101B6C00FFF7BAFD0B480C490C4A002302E0D4588D
:101B7C00C4500433C4188C42F9D3094A094C0023CD
:101B8C0001E013600432A242FBD301F0F9FAFFF733
:101B9C008BF9704700000020B400002028320008A8
:101BAC00B400002010050020FEE7000080B500AF57
:101BBC00084B1B68074A43F010031360032000F026
:101BCC0023F90F2000F008F8FFF7FEFC002318465D
:101BDC0080BD00BF0020024080B582B000AF7860AD
:101BEC00124B1A68124B1B7819464FF47A73B3FBDD
:101BFC00F1F3B2FBF3F3184600F03BF90346002B6C
:101C0C0001D001230EE07B680F2B0AD800227968E3
:101C1C004FF0FF3000F003F9064A7B681360002395
:101C2C0000E0012318460837BD4680BDA8000020FF
:101C3C00B0000020AC00002080B400AF054B1B7836
:101C4C001A46054B1B681344034A136000BFBD467C
:101C5C0080BC7047B00000200C05002080B400AFA1
:101C6C00024B1B681846BD4680BC70470C05002013
:101C7C0080B485B000AF78607B6803F00703FB602D
:101C8C000C4BDB68BB60BA684FF6FF031340BB60BC
:101C9C00FB681A02BB68134343F0BF6343F4003381
:101CAC00BB60044ABB68D36000BF1437BD4680BC20
:101CBC00704700BF00ED00E080B400AF044BDB6860
:101CCC001B0A03F007031846BD4680BC704700BFD3
:101CDC0000ED00E080B483B000AF0346FB7197F9D0
:101CEC000730002B0BDBFB7903F01F02064997F939
:101CFC0007305B09012000FA02F241F8232000BFF3
:101D0C000C37BD4680BC704700E100E080B483B066
:101D1C0000AF03463960FB7197F90730002B0ADBE3
:101D2C003B68DAB20C4997F907301201D2B20B4476
:101D3C0083F800230AE03B68DAB20849FB7903F028
:101D4C000F03043B1201D2B20B441A7600BF0C37BE
:101D5C00BD4680BC704700BF00E100E000ED00E034
:101D6C0080B489B000AFF860B9607A60FB6803F0AA
:101D7C000703FB61FB69C3F10703042B28BF042392
:101D8C00BB61FB690433062B02D9FB69033B00E002
:101D9C0000237B614FF0FF32BB6902FA03F3DA4395
:101DAC00BB681A407B699A404FF0FF317B6901FA9E
:101DBC0003F3D9437B680B40134318462437BD46C5
:101DCC0080BC704780B582B000AF78607B68013B07
:101DDC00B3F1807F01D301230FE00A4A7B68013BFA
:101DEC0053600F214FF0FF30FFF790FF054B00229F
:101DFC009A60044B07221A60002318460837BD4628
:101E0C0080BD00BF10E000E080B582B000AF78600C
:101E1C007868FFF72DFF00BF0837BD4680BD80B541
:101E2C0086B000AF0346B9607A60FB7300237B6118
:101E3C00FFF742FF78617A68B9687869FFF790FF1D
:101E4C00024697F90F3011461846FFF75FFF00BFA7
:101E5C001837BD4680BD80B582B000AF0346FB711C
:101E6C0097F907301846FFF735FF00BF0837BD4616
:101E7C0080BD80B582B000AF78607868FFF7A2FFB4
:101E8C00034618460837BD4680BD000080B48BB0B1
:101E9C0000AF7860396000237B6200233B6248E12D
:101EAC0001227B6A02FA03F3FB613B681B68FA6947
:101EBC001340BB61BA69FB699A4240F037813B68B9
:101ECC005B68A34A93425ED0A14A934275D8A14A5B
:101EDC00934258D09F4A93426FD89F4A934252D014
:101EEC009D4A934269D89D4A93424CD09B4A934257
:101EFC0063D89B4A934246D0994A93425DD8122BA1
:101F0C002AD8122B59D801A252F823F0931F00089B
:101F1C006D1F00087F1F0008C11F0008C71F0008A5
:101F2C00C71F0008C71F0008C71F0008C71F0008ED
:101F3C00C71F0008C71F0008C71F0008C71F0008DD
:101F4C00C71F0008C71F0008C71F0008C71F0008CD
:101F5C00751F0008891F0008824A934213D02CE099
:101F6C003B68DB683B6229E03B68DB6804333B621F
:101F7C0024E03B68DB6808333B621FE03B68DB68AE
:101F8C000C333B621AE03B689B68002B02D10423A4
:101F9C003B6213E03B689B68012B05D108233B6235
:101FAC007B68FA691A6109E008233B627B68FA696D
:101FBC005A6103E000233B6200E000BFBB69FF2BCA
:101FCC0001D87B6801E07B6804337B61BB69FF2B24
:101FDC0002D87B6A9B0002E07B6A083B9B003B615A
:101FEC007B691A680F213B6901FA03F3DB431A4042
:101FFC00396A3B6901FA03F31A437B691A603B683F
:10200C005B6803F08053002B00F09080564B9B696B
:10201C00554A43F001039361534B9B6903F0010351
:10202C00BB60BB68514A7B6A9B08023352F8233071
:10203C00FB607B6A03F003039B000F2202FA03F39D
:10204C00DB43FA681340FB607B68494A93420DD02E
:10205C007B68484A934207D07B68474A934201D138
:10206C00022304E0032302E0012300E000237A6A48
:10207C0002F0030292009340FA681343FB603B4961
:10208C007B6A9B080233FA6841F823203B685B6843
:10209C0003F48013002B06D0384B9A683749BB6980
:1020AC0013438B6006E0354B9A68BB69DB433349BD
:1020BC0013408B603B685B6803F40013002B06D065
:1020CC002E4BDA682D49BB691343CB6006E02B4BD2
:1020DC00DA68BB69DB4329491340CB603B685B681A
:1020EC0003F40033002B06D0244B5A682349BB69F8
:1020FC0013434B6006E0214B5A68BB69DB431F4915
:10210C0013404B603B685B6803F48033002B06D0B4
:10211C001A4B1A681949BB6913430B6006E0174B3D
:10212C001A68BB69DB43154913400B607B6A0133AA
:10213C007B623B681A687B6A22FA03F3002B7FF4FC
:10214C00AFAE00BF00BF2C37BD4680BC704700BF90
:10215C00000032100000311000002210000021108D
:10216C00000012100000111000100240000001408D
:10217C0000080140000C0140001001400004014027
:10218C0080B485B000AF78600B467B807B689A6822
:10219C007B881340002B02D00123FB7301E000234A
:1021AC00FB73FB7B18461437BD4680BC704780B46C
:1021BC0083B000AF78600B467B8013467B707B78D6
:1021CC00002B03D07A887B681A6103E07B881A04A1
:1021DC007B681A6100BF0C37BD4680BC704780B469
:1021EC0085B000AF78600B467B807B68DB68FB605A
:1021FC007A88FB6813401A04FB68D9437B880B4030
:10220C001A437B681A6100BF1437BD4680BC704707
:10221C0080B586B000AF78607B68002B01D10123BC
:10222C006CE27B681B6803F00103002B00F08780D5
:10223C00924B5B6803F00C03042B0CD08F4B5B6848
:10224C0003F00C03082B12D18C4B5B6803F4803326
:10225C00B3F5803F0BD1894B1B6803F40033002B83
:10226C006CD07B685B68002B68D1012346E27B68ED
:10227C005B68B3F5803F06D1804B1B687F4A43F403
:10228C00803313602EE07B685B68002B0CD17B4B9A
:10229C001B687A4A23F480331360784B1B68774AA7
:1022AC0023F4802313601DE07B685B68B3F5A02FDB
:1022BC000CD1724B1B68714A43F4802313606F4B33
:1022CC001B686E4A43F4803313600BE06B4B1B6846
:1022DC006A4A23F480331360684B1B68674A23F403
:1022EC00802313607B685B68002B13D0FFF7B6FC70
:1022FC00386108E0FFF7B2FC02463B69D31A642B45
:10230C0001D90323FAE15D4B1B6803F40033002B66
:10231C00F0D014E0FFF7A2FC386108E0FFF79EFC58
:10232C0002463B69D31A642B01D90323E6E1534BD4
:10233C001B6803F40033002BF0D100E000BF7B6876
:10234C001B6803F00203002B63D04C4B5B6803F05B
:10235C000C03002B0BD0494B5B6803F00C03082BD0
:10236C001CD1464B5B6803F48033002B16D1434BD6
:10237C001B6803F00203002B05D07B681B69012B43
:10238C0001D00123BAE13D4B1B6823F0F8027B68B6
:10239C005B69DB00394913430B603AE07B681B69CE
:1023AC00002B20D0364B01221A60FFF757FC386106
:1023BC0008E0FFF753FC02463B69D31A022B01D904
:1023CC0003239BE12D4B1B6803F00203002BF0D081
:1023DC002A4B1B6823F0F8027B685B69DB002749FA
:1023EC0013430B6015E0264B00221A60FFF736FCF6
:1023FC00386108E0FFF732FC02463B69D31A022B26
:10240C0001D903237AE11D4B1B6803F00203002B57
:10241C00F0D17B681B6803F00803002B3AD07B6873
:10242C009B69002B19D0174B01221A60FFF716FC81
:10243C00386108E0FFF712FC02463B69D31A022B05
:10244C0001D903235AE10D4B5B6A03F00203002B05
:10245C00F0D0012000F09AFA1CE00A4B00221A601E
:10246C00FFF7FCFB38610FE0FFF7F8FB02463B6916
:10247C00D31A022B08D9032340E100BF00100240FD
:10248C0000004242800442429E4B5B6A03F002030E
:10249C00002BE9D17B681B6803F00403002B00F0D0
:1024AC00A6800023FB75974BDB6903F08053002B50
:1024BC000DD1944BDB69934A43F08053D361914B1C
:1024CC00DB6903F08053BB60BB680123FB758E4B4B
:1024DC001B6803F48073002B18D18B4B1B688A4A42
:1024EC0043F480731360FFF7B9FB386108E0FFF722
:1024FC00B5FB02463B69D31A642B01D90323FDE0DB
:10250C00814B1B6803F48073002BF0D07B68DB6875
:10251C00012B06D17B4B1B6A7A4A43F001031362F1
:10252C002DE07B68DB68002B0CD1764B1B6A754A5F
:10253C0023F001031362734B1B6A724A23F00403EA
:10254C0013621CE07B68DB68052B0CD16D4B1B6A9E
:10255C006C4A43F0040313626A4B1B6A694A43F0EA
:10256C00010313620BE0674B1B6A664A23F00103FD
:10257C001362644B1B6A634A23F0040313627B6887
:10258C00DB68002B15D0FFF769FB38610AE0FFF719
:10259C0065FB02463B69D31A41F28832934201D95A
:1025AC000323ABE0574B1B6A03F00203002BEED066
:1025BC0014E0FFF753FB38610AE0FFF74FFB0246CC
:1025CC003B69D31A41F28832934201D9032395E037
:1025DC004C4B1B6A03F00203002BEED1FB7D012B4D
:1025EC0005D1484BDB69474A23F08053D3617B68A4
:1025FC00DB69002B00F08180424B5B6803F00C031D
:10260C00082B61D07B68DB69022B46D13F4B002243
:10261C001A60FFF723FB386108E0FFF71FFB024647
:10262C003B69D31A022B01D9032367E0354B1B6896
:10263C0003F00073002BF0D17B681B6AB3F5803F6D
:10264C0008D1304B5B6823F400327B689B682D49C2
:10265C0013434B602B4B5B6823F474127B68196A31
:10266C007B685B6A0B43274913434B60274B012262
:10267C001A60FFF7F3FA386108E0FFF7EFFA024649
:10268C003B69D31A022B01D9032337E01D4B1B687E
:10269C0003F00073002BF0D02FE01C4B00221A60CB
:1026AC00FFF7DCFA386108E0FFF7D8FA02463B691D
:1026BC00D31A022B01D9032320E0124B1B6803F021
:1026CC000073002BF0D118E07B68DB69012B01D182
:1026DC00012313E00B4B5B68FB60FB6803F4803257
:1026EC007B681B6A9A4206D1FB6803F470127B6804
:1026FC005B6A9A4201D0012300E000231846183788
:10270C00BD4680BD00100240007000406000424297
:10271C0080B584B000AF786039607B68002B01D144
:10272C000123D0E06A4B1B6803F007033A689A4216
:10273C0010D9674B1B6823F0070265493B681343AC
:10274C000B60634B1B6803F007033A689A4201D095
:10275C000123B8E07B681B6803F00203002B20D038
:10276C007B681B6803F00403002B05D0594B5B6896
:10277C00584A43F4E06353607B681B6803F008031A
:10278C00002B05D0534B5B68524A43F460535360A3
:10279C00504B5B6823F0F0027B689B684D491343F8
:1027AC004B607B681B6803F00103002B40D07B68F7
:1027BC005B68012B07D1474B1B6803F40033002BDC
:1027CC0015D101237FE07B685B68022B07D1414B5D
:1027DC001B6803F00073002B09D1012373E03D4B00
:1027EC001B6803F00203002B01D101236BE0394B72
:1027FC005B6823F003027B685B68364913434B60CC
:10280C00FFF72CFAF8600AE0FFF728FA0246FB689B
:10281C00D31A41F28832934201D9032353E02D4B52
:10282C005B6803F00C027B685B689B009A42EBD1FF
:10283C00274B1B6803F007033A689A4210D2244BCB
:10284C001B6823F0070222493B6813430B60204BA3
:10285C001B6803F007033A689A4201D0012332E067
:10286C007B681B6803F00403002B08D0194B5B68D2
:10287C0023F4E0627B68DB68164913434B607B688A
:10288C001B6803F00803002B09D0124B5B6823F480
:10289C0060527B681B69DB000E4913434B6000F0F0
:1028AC0021F802460B4B5B681B0903F00F030A4926
:1028BC00CB5C22FA03F3094A1360094B1B681846D8
:1028CC00FFF78AF9002318461037BD4680BD00BFBC
:1028DC000020024000100240FC310008A80000203B
:1028EC00AC00002080B487B000AF0023FB60002355
:1028FC00BB6000237B6100237B6000233B611E4B8C
:10290C005B68FB60FB6803F00C03042B02D0082B04
:10291C0003D027E0194B3B6127E0FB689B0C03F0CD
:10292C000F03174AD35C7B60FB6803F48033002BE6
:10293C0010D0114B5B685B0C03F00103114AD35CA4
:10294C00BB607B680D4A02FB03F2BB68B2FBF3F37E
:10295C007B6104E07B680C4A02FB03F37B617B69BF
:10296C003B6102E0054B3B6100BF3B6918461C37DD
:10297C00BD4680BC704700BF0010024000127A00B8
:10298C000C3200081C32000800093D0080B485B0F0
:10299C0000AF78600A4B1B680A4AA2FB03235B0A50
:1029AC007A6802FB03F3FB6000BFFB685A1EFA60F7
:1029BC00002BF9D100BF00BF1437BD4680BC704757
:1029CC00A8000020D34D621080B582B000AF7860B3
:1029DC007B68002B01D1012341E07B6893F83D30EB
:1029EC00DBB2002B06D17B68002283F83C20786890
:1029FC00FEF71CFE7B68022283F83D207B681A6878
:102A0C007B6804331946104600F056FA7B680122A5
:102A1C0083F846207B68012283F83E207B680122E4
:102A2C0083F83F207B68012283F840207B680122D9
:102A3C0083F841207B68012283F842207B680122C5
:102A4C0083F843207B68012283F844207B680122B1
:102A5C0083F845207B68012283F83D20002318462B
:102A6C000837BD4680BD000080B485B000AF7860EB
:102A7C007B6893F83D30DBB2012B01D0012335E0AC
:102A8C007B68022283F83D207B681B68DA687B68D0
:102A9C001B6842F00102DA607B681B68164A93429D
:102AAC0009D07B681B68B3F1804F04D07B681B682E
:102ABC00124A934211D17B681B689B6803F0070391
:102ACC00FB60FB68062B10D07B681B681A687B6860
:102ADC001B6842F001021A6007E07B681B681A68E9
:102AEC007B681B6842F001021A60002318461437F9
:102AFC00BD4680BC704700BF002C01400004004064
:102B0C0080B584B000AF78607B681B68DB68FB60C5
:102B1C007B681B681B69BB60BB6803F00203002B5E
:102B2C0020D0FB6803F00203002B1BD07B681B68D2
:102B3C006FF002021A617B6801221A777B681B68AE
:102B4C009B6903F00303002B03D0786800F098F91D
:102B5C0005E0786800F08BF9786800F09AF97B68EA
:102B6C0000221A77BB6803F00403002B20D0FB680B
:102B7C0003F00403002B1BD07B681B686FF004026E
:102B8C001A617B6802221A777B681B689B6903F4C5
:102B9C004073002B03D0786800F072F905E0786878
:102BAC0000F065F9786800F074F97B6800221A77F8
:102BBC00BB6803F00803002B20D0FB6803F008036C
:102BCC00002B1BD07B681B686FF008021A617B68B6
:102BDC0004221A777B681B68DB6903F00303002B64
:102BEC0003D0786800F04CF905E0786800F03FF904
:102BFC00786800F04EF97B6800221A77BB6803F006
:102C0C001003002B20D0FB6803F01003002B1BD00B
:102C1C007B681B686FF010021A617B6808221A77B8
:102C2C007B681B68DB6903F44073002B03D0786866
:102C3C0000F026F905E0786800F019F9786800F0E2
:102C4C0028F97B6800221A77BB6803F00103002B7C
:102C5C000CD0FB6803F00103002B07D07B681B68CA
:102C6C006FF001021A617868FEF750FABB6803F046
:102C7C008003002B0CD0FB6803F08003002B07D0E3
:102C8C007B681B686FF080021A61786800F06FFA3D
:102C9C00BB6803F04003002B0CD0FB6803F040032F
:102CAC00002B07D07B681B686FF040021A617868B4
:102CBC0000F0F8F8BB6803F02003002B0CD0FB6885
:102CCC0003F02003002B07D07B681B686FF02002F9
:102CDC001A61786800F042FA00BF1037BD4680BD1B
:102CEC0080B584B000AF786039600023FB737B68DB
:102CFC0093F83C30012B01D10223B4E07B68012214
:102D0C0083F83C207B68022283F83D207B681B689B
:102D1C009B68BB60BB6823F07703BB60BB6823F484
:102D2C007F43BB607B681B68BA689A603B681B6812
:102D3C00B3F5005F3ED0B3F5005F00F28780B3F5CA
:102D4C00805F00F08680B3F5805F7FD8702B1AD03F
:102D5C00702B7BD8602B50D0602B77D8502B3CD06D
:102D6C00502B73D8402B58D0402B6FD8302B64D0BD
:102D7C00302B6BD8202B60D0202B67D8002B5CD04D
:102D8C00102B5AD062E07B6818683B6899683B68E6
:102D9C005A683B68DB6800F06AF97B681B689B68C3
:102DAC00BB60BB6843F07703BB607B681B68BA6889
:102DBC009A604FE07B6818683B6899683B685A6872
:102DCC003B68DB6800F053F97B681B689A687B688A
:102DDC001B6842F480429A603CE07B6818683B6850
:102DEC0059683B68DB681A4600F0CAF87B681B68B8
:102DFC005021184600F021F92CE07B6818683B68DC
:102E0C0059683B68DB681A4600F0E8F87B681B6879
:102E1C006021184600F011F91CE07B6818683B68CB
:102E2C0059683B68DB681A4600F0AAF87B681B6897
:102E3C004021184600F001F90CE07B681A683B68E9
:102E4C001B681946104600F0F8F803E00123FB73E9
:102E5C0000E000BF7B68012283F83D207B680022E4
:102E6C0083F83C20FB7B18461037BD4680BD80B4F0
:102E7C0083B000AF786000BF0C37BD4680BC704794
:102E8C0080B483B000AF786000BF0C37BD4680BC07
:102E9C00704780B483B000AF786000BF0C37BD467C
:102EAC0080BC704780B483B000AF786000BF0C3733
:102EBC00BD4680BC7047000080B485B000AF786020
:102ECC0039607B681B68FB607B682B4A934207D098
:102EDC007B68B3F1804F03D07B68284A934208D1BA
:102EEC00FB6823F07003FB603B685B68FA68134374
:102EFC00FB607B68204A934207D07B68B3F1804F1C
:102F0C0003D07B681D4A934208D1FB6823F44073BD
:102F1C00FB603B68DB68FA681343FB60FB6823F0DB
:102F2C0080023B685B691343FB607B68FA681A603C
:102F3C003B689A687B68DA623B681A687B689A62BD
:102F4C007B680D4A934203D13B681A697B681A630C
:102F5C007B6801225A617B681B6903F00103002B1B
:102F6C0005D07B681B6923F001027B681A6100BFE6
:102F7C001437BD4680BC7047002C01400004004053
:102F8C0080B487B000AFF860B9607A60FB681B6AE8
:102F9C007B61FB681B6A23F00102FB681A62FB6809
:102FAC009B693B613B6923F0F0033B617B681B0130
:102FBC003A6913433B617B6923F00A037B617A69AD
:102FCC00BB6813437B61FB683A699A61FB687A6959
:102FDC001A6200BF1C37BD4680BC704780B487B0F6
:102FEC0000AFF860B9607A60FB681B6A7B61FB68B4
:102FFC001B6A23F01002FB681A62FB689B693B6139
:10300C003B6923F470433B617B681B033A691343B0
:10301C003B617B6923F0A0037B61BB681B017A6970
:10302C0013437B61FB683A699A61FB687A691A629F
:10303C0000BF1C37BD4680BC704780B485B000AF64
:10304C00786039607B689B68FB60FB6823F07003D9
:10305C00FB603A68FB68134343F00703FB607B6833
:10306C00FA689A6000BF1437BD4680BC704780B4C4
:10307C0087B000AFF860B9607A603B60FB689B6812
:10308C007B617B6923F47F437B613B681A027B681D
:10309C001A43BB6813437A6913437B61FB687A69F3
:1030AC009A6000BF1C37BD4680BC704780B485B0A9
:1030BC0000AF786039607B6893F83C30012B01D10C
:1030CC00022341E07B68012283F83C207B680222CA
:1030DC0083F83D207B681B685B68FB607B681B6822
:1030EC009B68BB60FB6823F07003FB603B681B684C
:1030FC00FA681343FB607B681B68FA685A607B684C
:10310C001B68144A934209D07B681B68B3F1804F4B
:10311C0004D07B681B68104A93420CD1BB6823F027
:10312C008003BB603B685B68BA681343BB607B6819
:10313C001B68BA689A607B68012283F83D207B6823
:10314C00002283F83C20002318461437BD4680BC6F
:10315C00704700BF002C01400004004080B483B0D5
:10316C0000AF786000BF0C37BD4680BC704780B4A0
:10317C0083B000AF786000BF0C37BD4680BC704791
:10318C0070B500260C4D0D4C641BA410A64209D141
:10319C0000F022F800260A4D0A4C641BA410A6422B
:1031AC0005D170BD55F8043B98470136EEE755F84C
:1031BC00043B98470136F2E7203200082032000821
:1031CC00203200082432000803460244934200D106
:1031DC00704703F8011BF9E7F8B500BFF8BC08BC51
:1031EC009E467047F8B500BFF8BC08BC9E467047B9
:1031FC00000000000000000001020304060708099B
:10320C0002030405060708090A0B0C0D0E0F10101B
:04321C0001020000AB
:043220003101000870
:043224000D01000890
:10322800000C0140000C0140000C0140000C014062
:10323800000C0140000C0140000C01400008014056
:103248000008014000080140000801400008014052
:1032580000080140000801400100020004000800C5
:1032680010002000400000010002000400080010C7
:1032780000200040000000000000010100000101E2
:103288000101000001000001000000000001010030
:103298000100000101000000010000010000000120
:1032A8000000000000000000010101010000000012
:1032B800000000000000000100000000F401000010
:1032C8002C010000C800000000127A001000000065
:0432D80001000000F1
:0400000508001B6D67
:00000001FF
