:020000040800F2
:1000000000280020011200081D110008231100081B
:10001000291100082F110008351100080000000008
:100020000000000000000000000000003B1100087C
:100030004711000800000000531100085F1100087C
:100040004912000849120008491200084912000824
:100050004912000849120008491200084912000814
:100060004912000849120008491200084912000804
:1000700049120008491200084912000849120008F4
:1000800049120008491200084912000849120008E4
:1000900049120008491200084912000849120008D4
:1000A00049120008491200084912000849120008C4
:1000B0006D110008491200080000000049120008F4
:1000C000491200080000000000000000491200086A
:1000D000000000004912000849120008000000005A
:1000E00049120008491200084912000800000000E7
:1000F0000000000000000000000000000000000000
:0C01000000000000000000005FF808F1A3
:10010C0010B5054C237833B9044B13B10448AFF345
:10011C0000800123237010BDBC00002000000000F3
:10012C004828000808B5034B1BB103490348AFF33B
:10013C00008008BD00000000C00000204828000816
:10014C0080B483B000AF01237B601BE0124A7B6854
:10015C00012142F82310114A7B68012142F8231037
:10016C000F4A7B68012142F823100E4A7B6801215B
:10017C0042F823100C4A7B68002142F823107B685C
:10018C0001337B607B68032BE0DD00BF00BF0C37C5
:10019C00BD4680BC704700BF4C0100200C01002004
:1001AC005C0100203C0100202C01002080B584B0B3
:1001BC0000AFF860B9601346FB80344AFB6852F814
:1001CC0023203349FB6841F82320324AFB6852F85C
:1001DC0023202E49FB6841F82320FB881946B86878
:1001EC0001F018FB034619462A4AFB6842F8231013
:1001FC00274AFB6852F823202449FB6851F8233026
:10020C009A423ED1214AFB6852F823202149FB68CF
:10021C0051F823309A4234D11F4AFB6852F82320FC
:10022C001C49FB6851F823309A4216D0194AFB68D6
:10023C0052F823201849FB6841F82320154AFB6823
:10024C0052F82330002B1CD1F86800F041F8134A07
:10025C00FB68C82142F8231013E0104AFB6852F8DF
:10026C0023305A1E0D49FB6841F823200B4AFB68CA
:10027C0052F82330002B04D1074AFB68012142F8C5
:10028C00231000BF1037BD4680BD00BF0C010020FD
:10029C004C0100205C0100203C0100201C010020CE
:1002AC0080B500AF4FF4005208490120FFF77EFFE4
:1002BC004FF4804205490220FFF778FF4FF40042CB
:1002CC0002490320FFF772FF00BF80BD0010014000
:1002DC0080B483B000AF7860044A7B68012142F897
:1002EC00231000BF0C37BD4680BC70472C0100208A
:1002FC0080B584B000AF78600023FB6011E00D4A3C
:10030C00FB6852F823000C4AFB6832F81310FB68A8
:10031C007A6813441B781A4601F093FAFB68013390
:10032C00FB60FB68062BEADD00BF00BF1037BD4643
:10033C0080BD00BF000000203800002080B582B0D6
:10034C0000AF78607B68092B3ED801A252F823F0ED
:10035C00850300088D030008950300089D03000821
:10036C00A5030008AD030008B5030008BD03000891
:10037C00C5030008CD0300081648FFF7B9FF24E0B9
:10038C001548FFF7B5FF20E01448FFF7B1FF1CE05C
:10039C001348FFF7ADFF18E01248FFF7A9FF14E070
:1003AC001148FFF7A5FF10E01048FFF7A1FF0CE084
:1003BC000F48FFF79DFF08E00E48FFF799FF04E098
:1003CC000D48FFF795FF00E000BF00BF0837BD46A2
:1003DC0080BD00BF540000205B00002062000020A4
:1003EC006900002070000020770000207E000020B3
:1003FC00850000208C0000209300002080B584B084
:10040C0000AF78600723FB6012E00D4AFB6852F8DE
:10041C0023000C4AFB6832F81310FB68073B7A6820
:10042C0013441B781A4601F00CFAFB680133FB608D
:10043C00FB680D2BE9DD00BF00BF1037BD4680BD4A
:10044C00000000203800002080B582B000AF78603A
:10045C007B68092B3ED801A252F823F091040008C6
:10046C0099040008A1040008A9040008B1040008BC
:10047C00B9040008C1040008C9040008D10400082C
:10048C00D90400081648FFF7B9FF24E01548FFF718
:10049C00B5FF20E01448FFF7B1FF1CE01348FFF74D
:1004AC00ADFF18E01248FFF7A9FF14E01148FFF761
:1004BC00A5FF10E01048FFF7A1FF0CE00F48FFF775
:1004CC009DFF08E00E48FFF799FF04E00D48FFF789
:1004DC0095FF00E000BF00BF0837BD4680BD00BFE0
:1004EC00540000205B000020620000206900002006
:1004FC0070000020770000207E0000208500002086
:10050C008C0000209300002080B500AFBC4B5B68D2
:10051C00052B00F25E8301A252F823F0410500087E
:10052C00DF0B0008DF0B0008450A00089F050008D8
:10053C0045080008B34B1B68B34A82FB03125211E7
:10054C00DB17D31AB14A1360B14B1B68AE4A82FB5E
:10055C0003125211DB17D31AAE4A1360AE4B1B6851
:10056C00A94A82FB03125211DB17D31AAB4A136050
:10057C00AB4B01221A60A24B04225A604FF47A71E1
:10058C00032000F00DFD4FF4FA71052000F008FD7A
:10059C0026E3A04B1B68002B0FDD00F05DFB9D4B91
:1005AC001A689A4B1B68D21A9C4B1B689A4202D150
:1005BC0000F094FB01E000F0BDFB994B1B68012B94
:1005CC003ED100224FF48041964801F03AF90022C6
:1005DC004FF40041934801F034F901224FF480515B
:1005EC00904801F02EF901224FF400518D4801F092
:1005FC0028F9884B1A688C4B83FB02139910D3177C
:10060C00C91A0B469B000B445B00D11A0846FFF736
:10061C001BFF7E4B1B68002B0FDD7C4B1A68824B3B
:10062C0083FB02139910D317C91A0B469B000B447A
:10063C005B00D11A0846FFF781FE794B00221A6045
:10064C0001224FF40071774801F0FBF8774B5B699E
:10065C00012B42D101224FF48041724801F0F1F894
:10066C0001224FF400416F4801F0EBF800224FF4E7
:10067C0080516C4801F0E5F800224FF400516948B4
:10068C0001F0DFF8634B1B68674A82FB0312921080
:10069C00DB17D31A1846FFF751FE5C4B1B68002B77
:1006AC000BDD5A4B1B68604A82FB03129210DB175E
:1006BC00D31A1846FFF7C8FE0AE0584B1B685A4A73
:1006CC0082FB03129210DB17D31A1846FFF7BCFEFD
:1006DC004FF4FA71052000F063FC544BDB68012BDE
:1006EC0064D100224FF480414E4801F0AAF8002258
:1006FC004FF400414B4801F0A4F801224FF4805113
:10070C00484801F09EF801224FF40051454801F091
:10071C0098F8404B1B68013B3E4A13603B4B1B68EF
:10072C00013B3A4A13603B4B1A683F4B83FB021365
:10073C009910D317C91A0B469B000B445B00D11AB6
:10074C000846FFF781FE314B1B68002B10DD2F4B49
:10075C001A68354B83FB02139910D317C91A0B4631
:10076C009B000B445B00D11A0846FFF7E7FD0FE036
:10077C002A4B1A682C4B83FB02139910D317C91AF6
:10078C000B469B000B445B00D11A0846FFF7D6FDC5
:10079C001E4B1B68002B04DC204B1B68013B1F4AC3
:1007AC0013604FF47A71032000F0FAFB194B1B68AD
:1007BC00002B40F01082164B1B68134A82FB03126D
:1007CC005211DB17D31A1A4A13600E4B1B680E4AD0
:1007DC0082FB03125211DB17D31A164A1360104B0B
:1007EC0001221A60064B05225A604FF4FA7105205B
:1007FC0000F0D6FB4FF47A71032000F0D1FBEAE154
:10080C00E8000020A40000201F85EB51000100200F
:10081C00A0000020D8000020A80000200401002027
:10082C00E4000020000C014067666666D4010020DD
:10083C00FC000020DC00002000224FF40071744802
:10084C0000F0FFFF00F034FA00F01CFA714B1B684B
:10085C00012B3AD100224FF480416D4800F0F1FF9A
:10086C0000224FF400416A4800F0EBFF01224FF4E4
:10087C008051674800F0E5FF01224FF400516448B5
:10088C0000F0DFFF644B1A68644B83FB0213991072
:10089C00D317C91A0B469B000B445B00D11A0846B0
:1008AC00FFF7D2FD5E4B1A685C4B83FB0213991069
:1008BC00D317C91A0B469B000B445B00D11A084690
:1008CC00FFF73CFD534B00221A60564B5B69012B22
:1008DC0032D14FF4FA71052000F062FB01224FF483
:1008EC0080414B4800F0ADFF01224FF400414848D5
:1008FC0000F0A7FF00224FF48051454800F0A1FF03
:10090C0000224FF40051424800F09BFF424B1B6801
:10091C00424A82FB03129210DB17D31A1846FFF7D8
:10092C000DFD3F4B1B683D4A82FB03129210DB17F7
:10093C00D31A1846FFF788FD3A4BDB68012B46D1DA
:10094C004FF47A71032000F02BFB00224FF480410E
:10095C002F4800F076FF00224FF400412C4800F0A5
:10096C0070FF01224FF48051294800F06AFF0122E8
:10097C004FF40051264800F064FF294B1B68013BE3
:10098C00274A1360244B1B68013B234A1360224BFC
:10099C001A68224B83FB02139910D317C91A0B4602
:1009AC009B000B445B00D11A0846FFF74DFD1C4B16
:1009BC001A681A4B83FB02139910D317C91A0B46EA
:1009CC009B000B445B00D11A0846FFF7B7FC124B97
:1009DC001B68002B40F001814FF4FA71052000F0E8
:1009EC00DFFA4FF47A71032000F0DAFA094B012296
:1009FC001A600D4B1B680D4A82FB03125211DB1758
:100A0C00D31A0B4A13600B4B03225A60E5E000BF6C
:100A1C00000C0140E4000020DC00002067666666E4
:100A2C00FC000020D4010020A80000201F85EB5101
:100A3C00E0000020E800002000F066F900F022F948
:100A4C00684B1B68012B3AD100224FF48041664859
:100A5C0000F0F7FE00224FF40041634800F0F1FE75
:100A6C0001224FF48051604800F0EBFE01224FF45C
:100A7C0000515D4800F0E5FE5C4B1A685C4B83FB53
:100A8C0002139910D317C91A0B469B000B445B0039
:100A9C00D11A0846FFF7D8FC564B1A68544B83FB07
:100AAC0002139910D317C91A0B469B000B445B0019
:100ABC00D11A0846FFF742FC4A4B00221A604E4BF3
:100ACC005B69012B32D101224FF48041464800F082
:100ADC00B8FE01224FF40041434800F0B2FE002260
:100AEC004FF48051404800F0ACFE00224FF400510E
:100AFC003D4800F0A6FE3D4B1B683D4A82FB0312AD
:100B0C009210DB17D31A1846FFF718FC394B1B68E9
:100B1C00374A82FB03129210DB17D31A1846FFF7E1
:100B2C0093FC4FF4FA71052000F03AFA324BDB6873
:100B3C00012B46D100224FF480412B4800F081FE5E
:100B4C0000224FF40041284800F07BFE01224FF4B4
:100B5C008051254800F075FE01224FF400512248C7
:100B6C0000F06FFE234B1B68013B224A13601F4BA6
:100B7C001B68013B1D4A13601C4B1A681C4B83FB02
:100B8C0002139910D317C91A0B469B000B445B0038
:100B9C00D11A0846FFF758FC164B1A68144B83FB06
:100BAC0002139910D317C91A0B469B000B445B0018
:100BBC00D11A0846FFF7C2FB4FF47A71032000F0FC
:100BCC00EFF90A4B1B68002B09D10C4B00225A6021
:100BDC0005E000BF04E000BF02E000BF00E000BF82
:100BEC0000BF80BDE4000020000C0140E0000020AC
:100BFC0067666666FC000020D4010020E800002037
:100C0C0080B400AF0F4B1B680F4A82FB03125211CA
:100C1C00DB17D21A0D4B1B680B4981FB03014911E1
:100C2C00DB17CB1A1A440A4B1B68074981FB0301DB
:100C3C004911DB17CB1A1344064A136000BFBD469B
:100C4C0080BC7047A00000201F85EB51A400002041
:100C5C00A80000200801002080B500AF012202216D
:100C6C00074800F0EEFD00220421054800F0E9FDE4
:100C7C0000220821024800F0E4FD00BF80BD00BF47
:100C8C000008014080B500AF01221021074800F098
:100C9C00D8FD00222021054800F0D3FD0022402180
:100CAC00024800F0CEFD00BF80BD00BF000801402F
:100CBC0080B500AF00220221074800F0C2FD0122DE
:100CCC000421054800F0BDFD00220821024800F077
:100CDC00B8FD00BF80BD00BF0008014080B500AF6B
:100CEC0000221021074800F0ACFD0122202105480C
:100CFC0000F0A7FD00224021024800F0A2FD00BF39
:100D0C0080BD00BF0008014080B500AF0022022169
:100D1C00074800F096FD00220421054800F091FDE3
:100D2C0001220821024800F08CFD00BF80BD00BFED
:100D3C000008014080B500AF00221021074800F0E8
:100D4C0080FD00222021054800F07BFD012240217E
:100D5C00024800F076FD00BF80BD00BF00080140D6
:100D6C0080B500AF00F06CFA00F00EF800F048F817
:100D7C0000F092F8034801F0A9F9FFF7E1F900F04F
:100D8C00FFF9FCE76C01002080B590B000AF07F1D3
:100D9C00180328220021184601F048FD3B1D0022B3
:100DAC001A605A609A60DA601A610223BB610123EF
:100DBC00BB621023FB6200237B6307F11803184608
:100DCC0000F058FD0346002B01D000F0E3F80F2390
:100DDC007B600023BB600023FB6000233B6100238E
:100DEC007B613B1D0021184600F0C4FF0346002B1D
:100DFC0001D000F0CFF800BF4037BD4680BD0000E9
:100E0C0080B586B000AF07F1080300221A605A6063
:100E1C009A60DA603B4600221A605A601D4B4FF014
:100E2C0080421A601B4B41F63F725A60194B0022EC
:100E3C009A60184B0922DA60164B00221A61154B86
:100E4C0000229A61134801F0F1F80346002B01D0FF
:100E5C0000F0A0F84FF48053BB6007F1080319466B
:100E6C000C4801F06FFA0346002B01D000F092F809
:100E7C0000233B6000237B603B461946054801F08C
:100E8C0047FC0346002B01D000F084F800BF183754
:100E9C00BD4680BD6C01002080B588B000AF07F165
:100EAC00100300221A605A609A60DA602F4B9B691B
:100EBC002E4A43F0100393612C4B9B6903F01003F3
:100ECC00FB60FB68294B9B69284A43F00403936140
:100EDC00264B9B6903F00403BB60BB68234B9B69E7
:100EEC00224A43F008039361204B9B6903F00803EB
:100EFC007B607B68002247F67E711D4800F0A1FCE8
:100F0C0000224FF27F211B4800F09BFC4FF4604302
:100F1C003B6100237B610123BB6107F11003194680
:100F2C00154800F0FDFA47F67E733B6101237B61A7
:100F3C000023BB610223FB6107F1100319460C4827
:100F4C0000F0EEFA4FF27F233B6101237B6100231B
:100F5C00BB610223FB6107F110031946054800F041
:100F6C00DFFA00BF2037BD4680BD00BF0010024035
:100F7C0000080140000C01400010014080B582B017
:100F8C0000AF786000F052F8FFF78AF900BF08371D
:100F9C00BD4680BD80B400AF72B600BFFEE7000056
:100FAC0080B483B000AF78603960094B1B683A6835
:100FBC0092FBF3F207497B6841F82320064A7B68D1
:100FCC00002142F8231000BF0C37BD4680BC70478F
:100FDC00AC000020B4010020D401002080B483B008
:100FEC0000AF78600F4A7B6852F82330002B13DD7A
:100FFC000C4A7B6852F823305A1E0A497B6841F828
:10100C002320084A7B6852F82330002B04DC064A64
:10101C007B68012142F8231000BF0C37BD4680BC11
:10102C00704700BFB4010020D401002080B500AF90
:10103C000020FFF7D3FF0120FFF7D0FF0220FFF7BE
:10104C00CDFF0320FFF7CAFF0420FFF7C7FF0520E1
:10105C00FFF7C4FF0620FFF7C1FF0720FFF7BEFF15
:10106C0000BF80BD80B485B000AF154B9B69144A9E
:10107C0043F001039361124B9B6903F00103BB60C6
:10108C00BB680F4BDB690E4A43F08053D3610C4BAA
:10109C00DB6903F080537B607B680A4B5B68FB6009
:1010AC00FB6823F0E063FB60FB6843F08063FB604C
:1010BC00044AFB68536000BF1437BD4680BC7047C0
:1010CC00001002400000014080B584B000AF786091
:1010DC007B681B68B3F1804F13D10C4BDB690B4A57
:1010EC0043F00103D361094BDB6903F00103FB609F
:1010FC00FB68002200211C2000F0DBF91C2000F012
:10110C00F4F900BF1037BD4680BD00BF001002408F
:10111C0080B400AFFEE780B400AFFEE780B400AF50
:10112C00FEE780B400AFFEE780B400AFFEE780B40A
:10113C0000AF00BFBD4680BC704780B400AF00BF9D
:10114C00BD4680BC704780B400AF00BFBD4680BCBC
:10115C00704780B500AF00F0B9F800BF80BD00004B
:10116C0080B500AF024800F0FDFF00BF80BD00BF9E
:10117C006C01002080B400AF00BFBD4680BC70473E
:10118C0080B500AF174B1B68012B0ED0642B23D1FD
:10119C00144B01221A60FFF733FD64210020FFF786
:1011AC00FFFE114B00225A6019E0FFF7ADF90F4B0F
:1011BC001B68012B08D10E4B1B68013B0C4A1360BA
:1011CC0064210020FFF7ECFE094B1B68002B05D1B6
:1011DC00044B64221A6001E000BF00E000BF00BFB6
:1011EC0080BD00BF9C000020E8000020D40100203E
:1011FC0008010020FFF7BEFF0B480C490C4A0023E6
:10120C0002E0D458C4500433C4188C42F9D3094AB0
:10121C00094C002301E013600432A242FBD301F01D
:10122C00E1FAFFF79DFD704700000020BC00002094
:10123C008C280008BC000020F8010020FEE700000C
:10124C0080B500AF084B1B68074A43F010031360CE
:10125C00032000F023F90F2000F008F8FFF702FF3D
:10126C000023184680BD00BF0020024080B582B02C
:10127C0000AF7860124B1A68124B1B7819464FF46A
:10128C007A73B3FBF1F3B2FBF3F3184600F03BF9BE
:10129C000346002B01D001230EE07B680F2B0AD8EC
:1012AC00002279684FF0FF3000F003F9064A7B68A2
:1012BC001360002300E0012318460837BD4680BDAB
:1012CC00B0000020B8000020B400002080B400AFB3
:1012DC00054B1B781A46054B1B681344034A1360D5
:1012EC0000BFBD4680BC7047B8000020F401002050
:1012FC0080B400AF024B1B681846BD4680BC7047DB
:10130C00F401002080B485B000AF78607B6803F0F6
:10131C000703FB600C4BDB68BB60BA684FF6FF033E
:10132C001340BB60FB681A02BB68134343F0BF63F6
:10133C0043F40033BB60044ABB68D36000BF14376E
:10134C00BD4680BC704700BF00ED00E080B400AF2C
:10135C00044BDB681B0A03F007031846BD4680BC30
:10136C00704700BF00ED00E080B483B000AF0346CF
:10137C00FB7197F90730002B0BDBFB7903F01F0295
:10138C00064997F907305B09012000FA02F241F88F
:10139C00232000BF0C37BD4680BC704700E100E045
:1013AC0080B483B000AF03463960FB7197F9073006
:1013BC00002B0ADB3B68DAB20C4997F907301201B3
:1013CC00D2B20B4483F800230AE03B68DAB2084936
:1013DC00FB7903F00F03043B1201D2B20B441A76D3
:1013EC0000BF0C37BD4680BC704700BF00E100E079
:1013FC0000ED00E080B489B000AFF860B9607A60AD
:10140C00FB6803F00703FB61FB69C3F10703042BC3
:10141C0028BF0423BB61FB690433062B02D9FB698B
:10142C00033B00E000237B614FF0FF32BB6902FA03
:10143C0003F3DA43BB681A407B699A404FF0FF31E3
:10144C007B6901FA03F3D9437B680B4013431846BD
:10145C002437BD4680BC704780B582B000AF786041
:10146C007B68013BB3F1807F01D301230FE00A4A73
:10147C007B68013B53600F214FF0FF30FFF790FF6B
:10148C00054B00229A60044B07221A600023184671
:10149C000837BD4680BD00BF10E000E080B582B0CB
:1014AC0000AF78607868FFF72DFF00BF0837BD46A6
:1014BC0080BD80B586B000AF0346B9607A60FB731F
:1014CC0000237B61FFF742FF78617A68B96878691D
:1014DC00FFF790FF024697F90F3011461846FFF7B9
:1014EC005FFF00BF1837BD4680BD80B582B000AF2E
:1014FC000346FB7197F907301846FFF735FF00BF1D
:10150C000837BD4680BD80B582B000AF7860786882
:10151C00FFF7A2FF034618460837BD4680BD000002
:10152C0080B48BB000AF7860396000237B620023FD
:10153C003B6248E101227B6A02FA03F3FB613B68E0
:10154C001B68FA691340BB61BA69FB699A4240F0A7
:10155C0037813B685B68A34A93425ED0A14A9342B1
:10156C0075D8A14A934258D09F4A93426FD89F4A4C
:10157C00934252D09D4A934269D89D4A93424CD093
:10158C009B4A934263D89B4A934246D0994A9342D2
:10159C005DD8122B2AD8122B59D801A252F823F05D
:1015AC002716000801160008131600085516000827
:1015BC005B1600085B1600085B1600085B1600083B
:1015CC005B1600085B1600085B1600085B1600082B
:1015DC005B1600085B1600085B1600085B1600081B
:1015EC005B160008091600081D160008824A934273
:1015FC0013D02CE03B68DB683B6229E03B68DB687E
:10160C0004333B6224E03B68DB6808333B621FE039
:10161C003B68DB680C333B621AE03B689B68002B31
:10162C0002D104233B6213E03B689B68012B05D17C
:10163C0008233B627B68FA691A6109E008233B6264
:10164C007B68FA695A6103E000233B6200E000BF4B
:10165C00BB69FF2B01D87B6801E07B6804337B619D
:10166C00BB69FF2B02D87B6A9B0002E07B6A083BBC
:10167C009B003B617B691A680F213B6901FA03F3FC
:10168C00DB431A40396A3B6901FA03F31A437B695D
:10169C001A603B685B6803F08053002B00F090806D
:1016AC00564B9B69554A43F001039361534B9B691D
:1016BC0003F00103BB60BB68514A7B6A9B08023391
:1016CC0052F82330FB607B6A03F003039B000F226C
:1016DC0002FA03F3DB43FA681340FB607B68494A68
:1016EC0093420DD07B68484A934207D07B68474AA7
:1016FC00934201D1022304E0032302E0012300E022
:10170C0000237A6A02F0030292009340FA681343B2
:10171C00FB603B497B6A9B080233FA6841F8232043
:10172C003B685B6803F48013002B06D0384B9A6837
:10173C003749BB6913438B6006E0354B9A68BB692C
:10174C00DB43334913408B603B685B6803F4001345
:10175C00002B06D02E4BDA682D49BB691343CB60A6
:10176C0006E02B4BDA68BB69DB4329491340CB609D
:10177C003B685B6803F40033002B06D0244B5A689B
:10178C002349BB6913434B6006E0214B5A68BB6984
:10179C00DB431F4913404B603B685B6803F48033A9
:1017AC00002B06D01A4B1A681949BB6913430B60FE
:1017BC0006E0174B1A68BB69DB43154913400B60F5
:1017CC007B6A01337B623B681A687B6A22FA03F3FB
:1017DC00002B7FF4AFAE00BF00BF2C37BD4680BCE2
:1017EC00704700BF000032100000311000002210C2
:1017FC000000211000001210000011100010024017
:10180C000000014000080140000C014000100140A4
:10181C000004014080B485B000AF78600B467B803B
:10182C007B689A687B881340002B02D00123FB73E2
:10183C0001E00023FB73FB7B18461437BD4680BCCC
:10184C00704780B483B000AF78600B467B80134642
:10185C007B707B78002B03D07A887B681A6103E05D
:10186C007B881A047B681A6100BF0C37BD4680BCAC
:10187C007047000080B586B000AF78607B68002BA5
:10188C0001D101236CE27B681B6803F00103002B80
:10189C0000F08780924B5B6803F00C03042B0CD098
:1018AC008F4B5B6803F00C03082B12D18C4B5B68DD
:1018BC0003F48033B3F5803F0BD1894B1B6803F4E1
:1018CC000033002B6CD07B685B68002B68D1012344
:1018DC0046E27B685B68B3F5803F06D1804B1B68A2
:1018EC007F4A43F4803313602EE07B685B68002BE7
:1018FC000CD17B4B1B687A4A23F480331360784BF2
:10190C001B68774A23F4802313601DE07B685B68B7
:10191C00B3F5A02F0CD1724B1B68714A43F4802392
:10192C0013606F4B1B686E4A43F4803313600BE0FB
:10193C006B4B1B686A4A23F480331360684B1B683B
:10194C00674A23F4802313607B685B68002B13D0F9
:10195C00FFF7CEFC386108E0FFF7CAFC02463B6992
:10196C00D31A642B01D90323FAE15D4B1B6803F4F2
:10197C000033002BF0D014E0FFF7BAFC386108E01C
:10198C00FFF7B6FC02463B69D31A642B01D903233B
:10199C00E6E1534B1B6803F40033002BF0D100E05D
:1019AC0000BF7B681B6803F00203002B63D04C4B19
:1019BC005B6803F00C03002B0BD0494B5B6803F006
:1019CC000C03082B1CD1464B5B6803F48033002BB3
:1019DC0016D1434B1B6803F00203002B05D07B6828
:1019EC001B69012B01D00123BAE13D4B1B6823F08D
:1019FC00F8027B685B69DB00394913430B603AE002
:101A0C007B681B69002B20D0364B01221A60FFF734
:101A1C006FFC386108E0FFF76BFC02463B69D31A98
:101A2C00022B01D903239BE12D4B1B6803F002030E
:101A3C00002BF0D02A4B1B6823F0F8027B685B6903
:101A4C00DB00274913430B6015E0264B00221A607C
:101A5C00FFF74EFC386108E0FFF74AFC02463B6991
:101A6C00D31A022B01D903237AE11D4B1B6803F017
:101A7C000203002BF0D17B681B6803F00803002BDA
:101A8C003AD07B689B69002B19D0174B01221A6046
:101A9C00FFF72EFC386108E0FFF72AFC02463B6991
:101AAC00D31A022B01D903235AE10D4B5B6A03F0C5
:101ABC000203002BF0D0012000F09AFA1CE00A4B34
:101ACC0000221A60FFF714FC38610FE0FFF710FCDE
:101ADC0002463B69D31A022B08D9032340E100BF0D
:101AEC000010024000004242800442429E4B5B6A5E
:101AFC0003F00203002BE9D17B681B6803F004039D
:101B0C00002B00F0A6800023FB75974BDB6903F0DC
:101B1C008053002B0DD1944BDB69934A43F08053D7
:101B2C00D361914BDB6903F08053BB60BB6801232D
:101B3C00FB758E4B1B6803F48073002B18D18B4BF9
:101B4C001B688A4A43F480731360FFF7D1FB38613A
:101B5C0008E0FFF7CDFB02463B69D31A642B01D991
:101B6C000323FDE0814B1B6803F48073002BF0D042
:101B7C007B68DB68012B06D17B4B1B6A7A4A43F0EE
:101B8C00010313622DE07B68DB68002B0CD1764BD4
:101B9C001B6A754A23F001031362734B1B6A724A6A
:101BAC0023F0040313621CE07B68DB68052B0CD16B
:101BBC006D4B1B6A6C4A43F0040313626A4B1B6A3D
:101BCC00694A43F0010313620BE0674B1B6A664AD8
:101BDC0023F001031362644B1B6A634A23F0040372
:101BEC0013627B68DB68002B15D0FFF781FB386133
:101BFC000AE0FFF77DFB02463B69D31A41F28832BB
:101C0C00934201D90323ABE0574B1B6A03F0020349
:101C1C00002BEED014E0FFF76BFB38610AE0FFF706
:101C2C0067FB02463B69D31A41F28832934201D9D1
:101C3C00032395E04C4B1B6A03F00203002BEED1FF
:101C4C00FB7D012B05D1484BDB69474A23F08053C0
:101C5C00D3617B68DB69002B00F08180424B5B68B1
:101C6C0003F00C03082B61D07B68DB69022B46D197
:101C7C003F4B00221A60FFF73BFB386108E0FFF78F
:101C8C0037FB02463B69D31A022B01D9032367E0C9
:101C9C00354B1B6803F00073002BF0D17B681B6A7B
:101CAC00B3F5803F08D1304B5B6823F400327B687E
:101CBC009B682D4913434B602B4B5B6823F47412C8
:101CCC007B68196A7B685B6A0B43274913434B603B
:101CDC00274B01221A60FFF70BFB386108E0FFF776
:101CEC0007FB02463B69D31A022B01D9032337E0C9
:101CFC001D4B1B6803F00073002BF0D02FE01C4B26
:101D0C0000221A60FFF7F4FA386108E0FFF7F0FAE6
:101D1C0002463B69D31A022B01D9032320E0124B54
:101D2C001B6803F00073002BF0D118E07B68DB69B3
:101D3C00012B01D1012313E00B4B5B68FB60FB68AB
:101D4C0003F480327B681B6A9A4206D1FB6803F469
:101D5C0070127B685B6A9A4201D0012300E0002379
:101D6C0018461837BD4680BD001002400070004078
:101D7C006000424280B584B000AF786039607B6807
:101D8C00002B01D10123D0E06A4B1B6803F0070341
:101D9C003A689A4210D9674B1B6823F007026549D1
:101DAC003B6813430B60634B1B6803F007033A68F3
:101DBC009A4201D00123B8E07B681B6803F0020350
:101DCC00002B20D07B681B6803F00403002B05D08C
:101DDC00594B5B68584A43F4E06353607B681B685B
:101DEC0003F00803002B05D0534B5B68524A43F4B5
:101DFC0060535360504B5B6823F0F0027B689B6828
:101E0C004D4913434B607B681B6803F00103002BA7
:101E1C0040D07B685B68012B07D1474B1B6803F4F0
:101E2C000033002B15D101237FE07B685B68022B0C
:101E3C0007D1414B1B6803F00073002B09D1012320
:101E4C0073E03D4B1B6803F00203002B01D101230F
:101E5C006BE0394B5B6823F003027B685B683649A7
:101E6C0013434B60FFF744FAF8600AE0FFF740FABF
:101E7C000246FB68D31A41F28832934201D90323FC
:101E8C0053E02D4B5B6803F00C027B685B689B0096
:101E9C009A42EBD1274B1B6803F007033A689A422E
:101EAC0010D2244B1B6823F0070222493B681343D2
:101EBC000B60204B1B6803F007033A689A4201D071
:101ECC00012332E07B681B6803F00403002B08D06D
:101EDC00194B5B6823F4E0627B68DB68164913439B
:101EEC004B607B681B6803F00803002B09D0124B76
:101EFC005B6823F460527B681B69DB000E4913435B
:101F0C004B6000F021F802460B4B5B681B0903F099
:101F1C000F030A49CB5C22FA03F3094A1360094BFD
:101F2C001B681846FFF7A2F9002318461037BD4668
:101F3C0080BD00BF00200240001002406028000855
:101F4C00B0000020B400002080B487B000AF0023A4
:101F5C00FB600023BB6000237B6100237B600023BC
:101F6C003B611E4B5B68FB60FB6803F00C03042BAE
:101F7C0002D0082B03D027E0194B3B6127E0FB680C
:101F8C009B0C03F00F03174AD35C7B60FB6803F4D4
:101F9C008033002B10D0114B5B685B0C03F00103FA
:101FAC00114AD35CBB607B680D4A02FB03F2BB6831
:101FBC00B2FBF3F37B6104E07B680C4A02FB03F396
:101FCC007B617B693B6102E0054B3B6100BF3B6978
:101FDC0018461C37BD4680BC704700BF001002403D
:101FEC0000127A00702800088028000800093D00C3
:101FFC0080B485B000AF78600A4B1B680A4AA2FB1C
:10200C0003235B0A7A6802FB03F3FB6000BFFB68E7
:10201C005A1EFA60002BF9D100BF00BF1437BD4621
:10202C0080BC7047B0000020D34D621080B582B0E8
:10203C0000AF78607B68002B01D1012341E07B6805
:10204C0093F83D30DBB2002B06D17B68002283F87D
:10205C003C207868FFF738F87B68022283F83D2033
:10206C007B681A687B6804331946104600F056FAF0
:10207C007B68012283F846207B68012283F83E208E
:10208C007B68012283F83F207B68012283F8402083
:10209C007B68012283F841207B68012283F842206F
:1020AC007B68012283F843207B68012283F844205B
:1020BC007B68012283F845207B68012283F83D2050
:1020CC00002318460837BD4680BD000080B485B09B
:1020DC0000AF78607B6893F83D30DBB2012B01D008
:1020EC00012335E07B68022283F83D207B681B6866
:1020FC00DA687B681B6842F00102DA607B681B6857
:10210C00164A934209D07B681B68B3F1804F04D008
:10211C007B681B68124A934211D17B681B689B68D1
:10212C0003F00703FB60FB68062B10D07B681B6871
:10213C001A687B681B6842F001021A6007E07B6832
:10214C001B681A687B681B6842F001021A60002346
:10215C0018461437BD4680BC704700BF002C0140A8
:10216C000004004080B584B000AF78607B681B68C9
:10217C00DB68FB607B681B681B69BB60BB6803F09A
:10218C000203002B20D0FB6803F00203002B1BD0B2
:10219C007B681B686FF002021A617B6801221A7758
:1021AC007B681B689B6903F00303002B03D07868E2
:1021BC0000F098F905E0786800F08BF9786800F089
:1021CC009AF97B6800221A77BB6803F00403002B92
:1021DC0020D0FB6803F00403002B1BD07B681B682A
:1021EC006FF004021A617B6802221A777B681B6805
:1021FC009B6903F44073002B03D0786800F072F9EC
:10220C0005E0786800F065F9786800F074F97B688F
:10221C0000221A77BB6803F00803002B20D0FB6860
:10222C0003F00803002B1BD07B681B686FF00802BF
:10223C001A617B6804221A777B681B68DB6903F0E0
:10224C000303002B03D0786800F04CF905E07868A4
:10225C0000F03FF9786800F04EF97B6800221A779D
:10226C00BB6803F01003002B20D0FB6803F01003B5
:10227C00002B1BD07B681B686FF010021A617B6807
:10228C0008221A777B681B68DB6903F44073002B08
:10229C0003D0786800F026F905E0786800F019F9A9
:1022AC00786800F028F97B6800221A77BB6803F085
:1022BC000103002B0CD0FB6803F00103002B07D0AB
:1022CC007B681B686FF001021A617868FEF756FE96
:1022DC00BB6803F08003002B0CD0FB6803F0800379
:1022EC00002B07D07B681B686FF080021A6178683E
:1022FC0000F06FFABB6803F04003002B0CD0FB68B6
:10230C0003F04003002B07D07B681B686FF0400282
:10231C001A61786800F0F8F8BB6803F02003002B12
:10232C000CD0FB6803F02003002B07D07B681B68E4
:10233C006FF020021A61786800F042FA00BF103783
:10234C00BD4680BD80B584B000AF78603960002395
:10235C00FB737B6893F83C30012B01D10223B4E072
:10236C007B68012283F83C207B68022283F83D20A5
:10237C007B681B689B68BB60BB6823F07703BB6002
:10238C00BB6823F47F43BB607B681B68BA689A60A8
:10239C003B681B68B3F5005F3ED0B3F5005F00F2FD
:1023AC008780B3F5805F00F08680B3F5805F7FD8BF
:1023BC00702B1AD0702B7BD8602B50D0602B77D819
:1023CC00502B3CD0502B73D8402B58D0402B6FD86F
:1023DC00302B64D0302B6BD8202B60D0202B67D8BF
:1023EC00002B5CD0102B5AD062E07B6818683B68DD
:1023FC0099683B685A683B68DB6800F06AF97B684F
:10240C001B689B68BB60BB6843F07703BB607B6851
:10241C001B68BA689A604FE07B6818683B689968DB
:10242C003B685A683B68DB6800F053F97B681B68B3
:10243C009A687B681B6842F480429A603CE07B6837
:10244C0018683B6859683B68DB681A4600F0CAF8A4
:10245C007B681B685021184600F021F92CE07B6842
:10246C0018683B6859683B68DB681A4600F0E8F866
:10247C007B681B686021184600F011F91CE07B6832
:10248C0018683B6859683B68DB681A4600F0AAF884
:10249C007B681B684021184600F001F90CE07B6852
:1024AC001A683B681B681946104600F0F8F803E000
:1024BC000123FB7300E000BF7B68012283F83D2001
:1024CC007B68002283F83C20FB7B18461037BD4606
:1024DC0080BD80B483B000AF786000BF0C37BD46C0
:1024EC0080BC704780B483B000AF786000BF0C37FD
:1024FC00BD4680BC704780B483B000AF786000BF2D
:10250C000C37BD4680BC704780B483B000AF786098
:10251C0000BF0C37BD4680BC7047000080B485B04E
:10252C0000AF786039607B681B68FB607B682B4A66
:10253C00934207D07B68B3F1804F03D07B68284A65
:10254C00934208D1FB6823F07003FB603B685B6827
:10255C00FA681343FB607B68204A934207D07B6880
:10256C00B3F1804F03D07B681D4A934208D1FB68BE
:10257C0023F44073FB603B68DB68FA681343FB6031
:10258C00FB6823F080023B685B691343FB607B684C
:10259C00FA681A603B689A687B68DA623B681A686A
:1025AC007B689A627B680D4A934203D13B681A6937
:1025BC007B681A637B6801225A617B681B6903F094
:1025CC000103002B05D07B681B6923F001027B689B
:1025DC001A6100BF1437BD4680BC7047002C014007
:1025EC000004004080B487B000AFF860B9607A6036
:1025FC00FB681B6A7B61FB681B6A23F00102FB68AA
:10260C001A62FB689B693B613B6923F0F0033B61F9
:10261C007B681B013A6913433B617B6923F00A0316
:10262C007B617A69BB6813437B61FB683A699A6189
:10263C00FB687A691A6200BF1C37BD4680BC7047C4
:10264C0080B487B000AFF860B9607A60FB681B6A31
:10265C007B61FB681B6A23F01002FB681A62FB6843
:10266C009B693B613B6923F470433B617B681B03B3
:10267C003A6913433B617B6923F0A0037B61BB6820
:10268C001B017A6913437B61FB683A699A61FB68A9
:10269C007A691A6200BF1C37BD4680BC704780B493
:1026AC0085B000AF786039607B689B68FB60FB6825
:1026BC0023F07003FB603A68FB68134343F0070395
:1026CC00FB607B68FA689A6000BF1437BD4680BC1B
:1026DC00704780B487B000AFF860B9607A603B6037
:1026EC00FB689B687B617B6923F47F437B613B6860
:1026FC001A027B681A43BB6813437A6913437B61E4
:10270C00FB687A699A6000BF1C37BD4680BC704775
:10271C0080B485B000AF786039607B6893F83C304A
:10272C00012B01D1022341E07B68012283F83C207C
:10273C007B68022283F83D207B681B685B68FB602A
:10274C007B681B689B68BB60FB6823F07003FB60B5
:10275C003B681B68FA681343FB607B681B68FA686C
:10276C005A607B681B68144A934209D07B681B68CB
:10277C00B3F1804F04D07B681B68104A93420CD194
:10278C00BB6823F08003BB603B685B68BA6813438B
:10279C00BB607B681B68BA689A607B68012283F80F
:1027AC003D207B68002283F83C2000231846143718
:1027BC00BD4680BC704700BF002C014000040040A7
:1027CC0080B483B000AF786000BF0C37BD4680BCCE
:1027DC00704780B483B000AF786000BF0C37BD4643
:1027EC0080BC704770B500260C4D0D4C641BA410BA
:1027FC00A64209D100F022F800260A4D0A4C641BAF
:10280C00A410A64205D170BD55F8043B984701367B
:10281C00EEE755F8043B98470136F2E784280008A8
:10282C0084280008842800088828000803460244ED
:10283C00934200D1704703F8011BF9E7F8B500BFCC
:10284C00F8BC08BC9E467047F8B500BFF8BC08BC85
:04285C009E467047DD
:102860000000000000000000010203040607080940
:1028700002030405060708090A0B0C0D0E0F1010C1
:042880000102000051
:042884003101000816
:042888000D01000836
:10288C00000C0140000C0140000C0140000C014008
:10289C00000C0140000C0140000C014000080140FC
:1028AC0000080140000801400008014000080140F8
:1028BC00000801400008014001000200040008006B
:1028CC00100020004000000100020004000800106D
:1028DC000020004000000000000001010000010188
:1028EC0001010000010000010000000000010100D6
:1028FC0001000001010000000100000100000001C6
:10290C0000000000000000000101010100000000B7
:10291C000000000000000001000000006400000046
:10292C00F40100002C010000C80000000A000000A7
:0C293C0000127A001000000001000000F2
:0400000508001201DC
:00000001FF
